{
  "_format": "hh-sol-artifact-1",
  "contractName": "TestPolygon",
  "sourceName": "contracts/TestPolygon.sol",
  "abi": [
    {
      "inputs": [],
      "stateMutability": "nonpayable",
      "type": "constructor"
    },
    {
      "anonymous": false,
      "inputs": [
        {
          "indexed": true,
          "internalType": "address",
          "name": "owner",
          "type": "address"
        },
        {
          "indexed": true,
          "internalType": "address",
          "name": "approved",
          "type": "address"
        },
        {
          "indexed": true,
          "internalType": "uint256",
          "name": "tokenId",
          "type": "uint256"
        }
      ],
      "name": "Approval",
      "type": "event"
    },
    {
      "anonymous": false,
      "inputs": [
        {
          "indexed": true,
          "internalType": "address",
          "name": "owner",
          "type": "address"
        },
        {
          "indexed": true,
          "internalType": "address",
          "name": "operator",
          "type": "address"
        },
        {
          "indexed": false,
          "internalType": "bool",
          "name": "approved",
          "type": "bool"
        }
      ],
      "name": "ApprovalForAll",
      "type": "event"
    },
    {
      "anonymous": false,
      "inputs": [
        {
          "indexed": true,
          "internalType": "address",
          "name": "previousOwner",
          "type": "address"
        },
        {
          "indexed": true,
          "internalType": "address",
          "name": "newOwner",
          "type": "address"
        }
      ],
      "name": "OwnershipTransferred",
      "type": "event"
    },
    {
      "anonymous": false,
      "inputs": [
        {
          "indexed": false,
          "internalType": "address",
          "name": "account",
          "type": "address"
        },
        {
          "indexed": false,
          "internalType": "uint256",
          "name": "shares",
          "type": "uint256"
        }
      ],
      "name": "PayeeAdded",
      "type": "event"
    },
    {
      "anonymous": false,
      "inputs": [
        {
          "indexed": false,
          "internalType": "address",
          "name": "from",
          "type": "address"
        },
        {
          "indexed": false,
          "internalType": "uint256",
          "name": "amount",
          "type": "uint256"
        }
      ],
      "name": "PaymentReceived",
      "type": "event"
    },
    {
      "anonymous": false,
      "inputs": [
        {
          "indexed": false,
          "internalType": "address",
          "name": "to",
          "type": "address"
        },
        {
          "indexed": false,
          "internalType": "uint256",
          "name": "amount",
          "type": "uint256"
        }
      ],
      "name": "PaymentReleased",
      "type": "event"
    },
    {
      "anonymous": false,
      "inputs": [
        {
          "indexed": true,
          "internalType": "address",
          "name": "from",
          "type": "address"
        },
        {
          "indexed": true,
          "internalType": "address",
          "name": "to",
          "type": "address"
        },
        {
          "indexed": true,
          "internalType": "uint256",
          "name": "tokenId",
          "type": "uint256"
        }
      ],
      "name": "Transfer",
      "type": "event"
    },
    {
      "anonymous": false,
      "inputs": [
        {
          "indexed": false,
          "internalType": "string",
          "name": "_licenseText",
          "type": "string"
        }
      ],
      "name": "licenseisLocked",
      "type": "event"
    },
    {
      "inputs": [],
      "name": "LICENSE_TEXT",
      "outputs": [
        {
          "internalType": "string",
          "name": "",
          "type": "string"
        }
      ],
      "stateMutability": "view",
      "type": "function"
    },
    {
      "inputs": [],
      "name": "MAX_SUPPLY",
      "outputs": [
        {
          "internalType": "uint256",
          "name": "",
          "type": "uint256"
        }
      ],
      "stateMutability": "view",
      "type": "function"
    },
    {
      "inputs": [],
      "name": "MAX_TOKENS_PER_TRANSACTION",
      "outputs": [
        {
          "internalType": "uint256",
          "name": "",
          "type": "uint256"
        }
      ],
      "stateMutability": "view",
      "type": "function"
    },
    {
      "inputs": [],
      "name": "TEST_PROVENANCE",
      "outputs": [
        {
          "internalType": "string",
          "name": "",
          "type": "string"
        }
      ],
      "stateMutability": "view",
      "type": "function"
    },
    {
      "inputs": [],
      "name": "_baseTokenURI",
      "outputs": [
        {
          "internalType": "string",
          "name": "",
          "type": "string"
        }
      ],
      "stateMutability": "view",
      "type": "function"
    },
    {
      "inputs": [],
      "name": "_saleStartTime",
      "outputs": [
        {
          "internalType": "uint256",
          "name": "",
          "type": "uint256"
        }
      ],
      "stateMutability": "view",
      "type": "function"
    },
    {
      "inputs": [
        {
          "internalType": "address",
          "name": "_wallet",
          "type": "address"
        },
        {
          "internalType": "uint256",
          "name": "_count",
          "type": "uint256"
        }
      ],
      "name": "airdrop",
      "outputs": [],
      "stateMutability": "nonpayable",
      "type": "function"
    },
    {
      "inputs": [
        {
          "internalType": "address",
          "name": "to",
          "type": "address"
        },
        {
          "internalType": "uint256",
          "name": "tokenId",
          "type": "uint256"
        }
      ],
      "name": "approve",
      "outputs": [],
      "stateMutability": "nonpayable",
      "type": "function"
    },
    {
      "inputs": [
        {
          "internalType": "address",
          "name": "owner",
          "type": "address"
        }
      ],
      "name": "balanceOf",
      "outputs": [
        {
          "internalType": "uint256",
          "name": "",
          "type": "uint256"
        }
      ],
      "stateMutability": "view",
      "type": "function"
    },
    {
      "inputs": [
        {
          "internalType": "string",
          "name": "_license",
          "type": "string"
        }
      ],
      "name": "changeLicense",
      "outputs": [],
      "stateMutability": "nonpayable",
      "type": "function"
    },
    {
      "inputs": [
        {
          "internalType": "uint256",
          "name": "tokenId",
          "type": "uint256"
        }
      ],
      "name": "getApproved",
      "outputs": [
        {
          "internalType": "address",
          "name": "",
          "type": "address"
        }
      ],
      "stateMutability": "view",
      "type": "function"
    },
    {
      "inputs": [],
      "name": "getPrice",
      "outputs": [
        {
          "internalType": "uint256",
          "name": "",
          "type": "uint256"
        }
      ],
      "stateMutability": "view",
      "type": "function"
    },
    {
      "inputs": [
        {
          "internalType": "address",
          "name": "owner",
          "type": "address"
        },
        {
          "internalType": "address",
          "name": "operator",
          "type": "address"
        }
      ],
      "name": "isApprovedForAll",
      "outputs": [
        {
          "internalType": "bool",
          "name": "",
          "type": "bool"
        }
      ],
      "stateMutability": "view",
      "type": "function"
    },
    {
      "inputs": [],
      "name": "lockLicense",
      "outputs": [],
      "stateMutability": "nonpayable",
      "type": "function"
    },
    {
      "inputs": [
        {
          "internalType": "uint256",
          "name": "_count",
          "type": "uint256"
        }
      ],
      "name": "mint",
      "outputs": [],
      "stateMutability": "payable",
      "type": "function"
    },
    {
      "inputs": [],
      "name": "name",
      "outputs": [
        {
          "internalType": "string",
          "name": "",
          "type": "string"
        }
      ],
      "stateMutability": "view",
      "type": "function"
    },
    {
      "inputs": [],
      "name": "owner",
      "outputs": [
        {
          "internalType": "address",
          "name": "",
          "type": "address"
        }
      ],
      "stateMutability": "view",
      "type": "function"
    },
    {
      "inputs": [
        {
          "internalType": "uint256",
          "name": "tokenId",
          "type": "uint256"
        }
      ],
      "name": "ownerOf",
      "outputs": [
        {
          "internalType": "address",
          "name": "",
          "type": "address"
        }
      ],
      "stateMutability": "view",
      "type": "function"
    },
    {
      "inputs": [
        {
          "internalType": "uint256",
          "name": "index",
          "type": "uint256"
        }
      ],
      "name": "payee",
      "outputs": [
        {
          "internalType": "address",
          "name": "",
          "type": "address"
        }
      ],
      "stateMutability": "view",
      "type": "function"
    },
    {
      "inputs": [
        {
          "internalType": "address payable",
          "name": "account",
          "type": "address"
        }
      ],
      "name": "release",
      "outputs": [],
      "stateMutability": "nonpayable",
      "type": "function"
    },
    {
      "inputs": [
        {
          "internalType": "address",
          "name": "account",
          "type": "address"
        }
      ],
      "name": "released",
      "outputs": [
        {
          "internalType": "uint256",
          "name": "",
          "type": "uint256"
        }
      ],
      "stateMutability": "view",
      "type": "function"
    },
    {
      "inputs": [],
      "name": "renounceOwnership",
      "outputs": [],
      "stateMutability": "nonpayable",
      "type": "function"
    },
    {
      "inputs": [
        {
          "internalType": "address",
          "name": "from",
          "type": "address"
        },
        {
          "internalType": "address",
          "name": "to",
          "type": "address"
        },
        {
          "internalType": "uint256",
          "name": "tokenId",
          "type": "uint256"
        }
      ],
      "name": "safeTransferFrom",
      "outputs": [],
      "stateMutability": "nonpayable",
      "type": "function"
    },
    {
      "inputs": [
        {
          "internalType": "address",
          "name": "from",
          "type": "address"
        },
        {
          "internalType": "address",
          "name": "to",
          "type": "address"
        },
        {
          "internalType": "uint256",
          "name": "tokenId",
          "type": "uint256"
        },
        {
          "internalType": "bytes",
          "name": "_data",
          "type": "bytes"
        }
      ],
      "name": "safeTransferFrom",
      "outputs": [],
      "stateMutability": "nonpayable",
      "type": "function"
    },
    {
      "inputs": [
        {
          "internalType": "address",
          "name": "operator",
          "type": "address"
        },
        {
          "internalType": "bool",
          "name": "approved",
          "type": "bool"
        }
      ],
      "name": "setApprovalForAll",
      "outputs": [],
      "stateMutability": "nonpayable",
      "type": "function"
    },
    {
      "inputs": [
        {
          "internalType": "string",
          "name": "_newBaseURI",
          "type": "string"
        }
      ],
      "name": "setBaseURI",
      "outputs": [],
      "stateMutability": "nonpayable",
      "type": "function"
    },
    {
      "inputs": [
        {
          "internalType": "uint256",
          "name": "_newMaxSupply",
          "type": "uint256"
        }
      ],
      "name": "setMaxSupply",
      "outputs": [],
      "stateMutability": "nonpayable",
      "type": "function"
    },
    {
      "inputs": [
        {
          "internalType": "uint256",
          "name": "_newPrice",
          "type": "uint256"
        }
      ],
      "name": "setPrice",
      "outputs": [],
      "stateMutability": "nonpayable",
      "type": "function"
    },
    {
      "inputs": [
        {
          "internalType": "string",
          "name": "_provenanceHash",
          "type": "string"
        }
      ],
      "name": "setProvenanceHash",
      "outputs": [],
      "stateMutability": "nonpayable",
      "type": "function"
    },
    {
      "inputs": [
        {
          "internalType": "uint256",
          "name": "_newStartTime",
          "type": "uint256"
        }
      ],
      "name": "setSaleStartTime",
      "outputs": [],
      "stateMutability": "nonpayable",
      "type": "function"
    },
    {
      "inputs": [
        {
          "internalType": "address",
          "name": "account",
          "type": "address"
        }
      ],
      "name": "shares",
      "outputs": [
        {
          "internalType": "uint256",
          "name": "",
          "type": "uint256"
        }
      ],
      "stateMutability": "view",
      "type": "function"
    },
    {
      "inputs": [
        {
          "internalType": "bytes4",
          "name": "interfaceId",
          "type": "bytes4"
        }
      ],
      "name": "supportsInterface",
      "outputs": [
        {
          "internalType": "bool",
          "name": "",
          "type": "bool"
        }
      ],
      "stateMutability": "view",
      "type": "function"
    },
    {
      "inputs": [],
      "name": "symbol",
      "outputs": [
        {
          "internalType": "string",
          "name": "",
          "type": "string"
        }
      ],
      "stateMutability": "view",
      "type": "function"
    },
    {
      "inputs": [
        {
          "internalType": "uint256",
          "name": "index",
          "type": "uint256"
        }
      ],
      "name": "tokenByIndex",
      "outputs": [
        {
          "internalType": "uint256",
          "name": "",
          "type": "uint256"
        }
      ],
      "stateMutability": "view",
      "type": "function"
    },
    {
      "inputs": [
        {
          "internalType": "uint256",
          "name": "_id",
          "type": "uint256"
        }
      ],
      "name": "tokenLicense",
      "outputs": [
        {
          "internalType": "string",
          "name": "",
          "type": "string"
        }
      ],
      "stateMutability": "view",
      "type": "function"
    },
    {
      "inputs": [
        {
          "internalType": "address",
          "name": "owner",
          "type": "address"
        },
        {
          "internalType": "uint256",
          "name": "index",
          "type": "uint256"
        }
      ],
      "name": "tokenOfOwnerByIndex",
      "outputs": [
        {
          "internalType": "uint256",
          "name": "",
          "type": "uint256"
        }
      ],
      "stateMutability": "view",
      "type": "function"
    },
    {
      "inputs": [
        {
          "internalType": "uint256",
          "name": "tokenId",
          "type": "uint256"
        }
      ],
      "name": "tokenURI",
      "outputs": [
        {
          "internalType": "string",
          "name": "",
          "type": "string"
        }
      ],
      "stateMutability": "view",
      "type": "function"
    },
    {
      "inputs": [],
      "name": "totalReleased",
      "outputs": [
        {
          "internalType": "uint256",
          "name": "",
          "type": "uint256"
        }
      ],
      "stateMutability": "view",
      "type": "function"
    },
    {
      "inputs": [],
      "name": "totalShares",
      "outputs": [
        {
          "internalType": "uint256",
          "name": "",
          "type": "uint256"
        }
      ],
      "stateMutability": "view",
      "type": "function"
    },
    {
      "inputs": [],
      "name": "totalSupply",
      "outputs": [
        {
          "internalType": "uint256",
          "name": "",
          "type": "uint256"
        }
      ],
      "stateMutability": "view",
      "type": "function"
    },
    {
      "inputs": [
        {
          "internalType": "address",
          "name": "from",
          "type": "address"
        },
        {
          "internalType": "address",
          "name": "to",
          "type": "address"
        },
        {
          "internalType": "uint256",
          "name": "tokenId",
          "type": "uint256"
        }
      ],
      "name": "transferFrom",
      "outputs": [],
      "stateMutability": "nonpayable",
      "type": "function"
    },
    {
      "inputs": [
        {
          "internalType": "address",
          "name": "newOwner",
          "type": "address"
        }
      ],
      "name": "transferOwnership",
      "outputs": [],
      "stateMutability": "nonpayable",
      "type": "function"
    },
    {
      "inputs": [
        {
          "internalType": "address",
          "name": "_owner",
          "type": "address"
        }
      ],
      "name": "walletOfOwner",
      "outputs": [
        {
          "internalType": "uint256[]",
          "name": "",
          "type": "uint256[]"
        }
      ],
      "stateMutability": "view",
      "type": "function"
    },
    {
      "stateMutability": "payable",
      "type": "receive"
    }
  ],
  "bytecode": "0x6080604052666a94d74f4300006010556040518060400160405280600581526020017f2e6a736f6e000000000000000000000000000000000000000000000000000000815250601190805190602001906200005c929190620007ee565b50604051806020016040528060008152506012908051906020019062000084929190620007ee565b506014601355610c8a60145563616eeb806015556040518060200160405280600081525060169080519060200190620000bf929190620007ee565b506040518060200160405280600081525060179080519060200190620000e7929190620007ee565b506000601860006101000a81548160ff0219169083151502179055507397ef605ff1a1527b9239bb009d7d1b004a5ef384601a60006101000a81548173ffffffffffffffffffffffffffffffffffffffff021916908373ffffffffffffffffffffffffffffffffffffffff1602179055506040518060200160405280601a60009054906101000a900473ffffffffffffffffffffffffffffffffffffffff1673ffffffffffffffffffffffffffffffffffffffff1673ffffffffffffffffffffffffffffffffffffffff16815250601b906001620001c79291906200087f565b506040518060200160405280606460ff16815250601c906001620001ed9291906200090e565b50348015620001fb57600080fd5b50601b8054806020026020016040519081016040528092919081815260200182805480156200028057602002820191906000526020600020905b8160009054906101000a900473ffffffffffffffffffffffffffffffffffffffff1673ffffffffffffffffffffffffffffffffffffffff168152602001906001019080831162000235575b5050505050601c805480602002602001604051908101604052809291908181526020018280548015620002d357602002820191906000526020600020905b815481526020019060010190808311620002be575b50505050506040518060400160405280600b81526020017f54657374506f6c79676f6e0000000000000000000000000000000000000000008152506040518060400160405280600381526020017f545047000000000000000000000000000000000000000000000000000000000081525081600090805190602001906200035c929190620007ee565b50806001908051906020019062000375929190620007ee565b505050620003986200038c620004e660201b60201c565b620004ee60201b60201c565b8051825114620003df576040517f08c379a0000000000000000000000000000000000000000000000000000000008152600401620003d69062000bb1565b60405180910390fd5b600082511162000426576040517f08c379a00000000000000000000000000000000000000000000000000000000081526004016200041d9062000bf5565b60405180910390fd5b60005b8251811015620004dd57620004c783828151811062000471577f4e487b7100000000000000000000000000000000000000000000000000000000600052603260045260246000fd5b6020026020010151838381518110620004b3577f4e487b7100000000000000000000000000000000000000000000000000000000600052603260045260246000fd5b6020026020010151620005b460201b60201c565b8080620004d49062000d1b565b91505062000429565b50505062000dc7565b600033905090565b6000600a60009054906101000a900473ffffffffffffffffffffffffffffffffffffffff16905081600a60006101000a81548173ffffffffffffffffffffffffffffffffffffffff021916908373ffffffffffffffffffffffffffffffffffffffff1602179055508173ffffffffffffffffffffffffffffffffffffffff168173ffffffffffffffffffffffffffffffffffffffff167f8be0079c531659141344cd1fd0a4f28419497f9722a3daafe3b4186f6b6457e060405160405180910390a35050565b600073ffffffffffffffffffffffffffffffffffffffff168273ffffffffffffffffffffffffffffffffffffffff16141562000627576040517f08c379a00000000000000000000000000000000000000000000000000000000081526004016200061e9062000b8f565b60405180910390fd5b600081116200066d576040517f08c379a0000000000000000000000000000000000000000000000000000000008152600401620006649062000c17565b60405180910390fd5b6000600d60008473ffffffffffffffffffffffffffffffffffffffff1673ffffffffffffffffffffffffffffffffffffffff1681526020019081526020016000205414620006f2576040517f08c379a0000000000000000000000000000000000000000000000000000000008152600401620006e99062000bd3565b60405180910390fd5b600f829080600181540180825580915050600190039060005260206000200160009091909190916101000a81548173ffffffffffffffffffffffffffffffffffffffff021916908373ffffffffffffffffffffffffffffffffffffffff16021790555080600d60008473ffffffffffffffffffffffffffffffffffffffff1673ffffffffffffffffffffffffffffffffffffffff1681526020019081526020016000208190555080600b54620007a9919062000c4a565b600b819055507f40c340f65e17194d14ddddb073d3c9f888e3cb52b5aae0c6c7706b4fbc905fac8282604051620007e292919062000b62565b60405180910390a15050565b828054620007fc9062000ce5565b90600052602060002090601f0160209004810192826200082057600085556200086c565b82601f106200083b57805160ff19168380011785556200086c565b828001600101855582156200086c579182015b828111156200086b5782518255916020019190600101906200084e565b5b5090506200087b919062000965565b5090565b828054828255906000526020600020908101928215620008fb579160200282015b82811115620008fa5782518260006101000a81548173ffffffffffffffffffffffffffffffffffffffff021916908373ffffffffffffffffffffffffffffffffffffffff16021790555091602001919060010190620008a0565b5b5090506200090a919062000965565b5090565b82805482825590600052602060002090810192821562000952579160200282015b8281111562000951578251829060ff169055916020019190600101906200092f565b5b50905062000961919062000965565b5090565b5b808211156200098057600081600090555060010162000966565b5090565b6200098f8162000ca7565b82525050565b6000620009a4602c8362000c39565b91507f5061796d656e7453706c69747465723a206163636f756e74206973207468652060008301527f7a65726f206164647265737300000000000000000000000000000000000000006020830152604082019050919050565b600062000a0c60328362000c39565b91507f5061796d656e7453706c69747465723a2070617965657320616e64207368617260008301527f6573206c656e677468206d69736d6174636800000000000000000000000000006020830152604082019050919050565b600062000a74602b8362000c39565b91507f5061796d656e7453706c69747465723a206163636f756e7420616c726561647960008301527f20686173207368617265730000000000000000000000000000000000000000006020830152604082019050919050565b600062000adc601a8362000c39565b91507f5061796d656e7453706c69747465723a206e6f207061796565730000000000006000830152602082019050919050565b600062000b1e601d8362000c39565b91507f5061796d656e7453706c69747465723a207368617265732061726520300000006000830152602082019050919050565b62000b5c8162000cdb565b82525050565b600060408201905062000b79600083018562000984565b62000b88602083018462000b51565b9392505050565b6000602082019050818103600083015262000baa8162000995565b9050919050565b6000602082019050818103600083015262000bcc81620009fd565b9050919050565b6000602082019050818103600083015262000bee8162000a65565b9050919050565b6000602082019050818103600083015262000c108162000acd565b9050919050565b6000602082019050818103600083015262000c328162000b0f565b9050919050565b600082825260208201905092915050565b600062000c578262000cdb565b915062000c648362000cdb565b9250827fffffffffffffffffffffffffffffffffffffffffffffffffffffffffffffffff0382111562000c9c5762000c9b62000d69565b5b828201905092915050565b600062000cb48262000cbb565b9050919050565b600073ffffffffffffffffffffffffffffffffffffffff82169050919050565b6000819050919050565b6000600282049050600182168062000cfe57607f821691505b6020821081141562000d155762000d1462000d98565b5b50919050565b600062000d288262000cdb565b91507fffffffffffffffffffffffffffffffffffffffffffffffffffffffffffffffff82141562000d5e5762000d5d62000d69565b5b600182019050919050565b7f4e487b7100000000000000000000000000000000000000000000000000000000600052601160045260246000fd5b7f4e487b7100000000000000000000000000000000000000000000000000000000600052602260045260246000fd5b6151d58062000dd76000396000f3fe6080604052600436106102605760003560e01c8063715018a611610144578063a22cb465116100b6578063ce7c2ac21161007a578063ce7c2ac214610946578063cfc86f7b14610983578063d9b137b2146109ae578063e33b7de3146109eb578063e985e9c514610a16578063f2fde38b14610a53576102a7565b8063a22cb46514610877578063b09904b5146108a0578063b88d4fde146108c9578063bf4702fc146108f2578063c87b56dd14610909576102a7565b806391b7f5ed1161010857806391b7f5ed1461077457806395d89b411461079d5780639852595c146107c857806398d5fdca146108055780639c3e72bd14610830578063a0712d681461085b576102a7565b8063715018a6146106a157806375a99b9f146106b85780638b83209b146106e35780638ba4cc3c146107205780638da5cb5b14610749576102a7565b80633a98ef39116101dd5780634fce1de3116101a15780634fce1de314610581578063525f8a5c146105ac57806355f804b3146105d55780636352211e146105fe5780636f8b44b01461063b57806370a0823114610664576102a7565b80633a98ef391461048857806342842e0e146104b3578063438b6300146104dc5780634d499ca6146105195780634f6ccce714610544576102a7565b806318160ddd1161022457806318160ddd146103a357806319165587146103ce57806323b872dd146103f75780632f745c591461042057806332cb6b0c1461045d576102a7565b806301ffc9a7146102ac57806306fdde03146102e9578063081812fc14610314578063095ea7b314610351578063109695231461037a576102a7565b366102a7577f6ef95f06320e7a25a04a175ca677b7052bdd97131872c2192525a629f51be77061028e610a7c565b3460405161029d92919061480e565b60405180910390a1005b600080fd5b3480156102b857600080fd5b506102d360048036038101906102ce9190613a13565b610a84565b6040516102e09190614859565b60405180910390f35b3480156102f557600080fd5b506102fe610afe565b60405161030b9190614874565b60405180910390f35b34801561032057600080fd5b5061033b60048036038101906103369190613aa6565b610b90565b604051610348919061477e565b60405180910390f35b34801561035d57600080fd5b50610378600480360381019061037391906139d7565b610c15565b005b34801561038657600080fd5b506103a1600480360381019061039c9190613a65565b610d2d565b005b3480156103af57600080fd5b506103b8610dc3565b6040516103c59190614c58565b60405180910390f35b3480156103da57600080fd5b506103f560048036038101906103f0919061386c565b610dd0565b005b34801561040357600080fd5b5061041e600480360381019061041991906138d1565b611038565b005b34801561042c57600080fd5b50610447600480360381019061044291906139d7565b611098565b6040516104549190614c58565b60405180910390f35b34801561046957600080fd5b5061047261113d565b60405161047f9190614c58565b60405180910390f35b34801561049457600080fd5b5061049d611143565b6040516104aa9190614c58565b60405180910390f35b3480156104bf57600080fd5b506104da60048036038101906104d591906138d1565b61114d565b005b3480156104e857600080fd5b5061050360048036038101906104fe9190613843565b61116d565b6040516105109190614837565b60405180910390f35b34801561052557600080fd5b5061052e611267565b60405161053b9190614874565b60405180910390f35b34801561055057600080fd5b5061056b60048036038101906105669190613aa6565b6112f5565b6040516105789190614c58565b60405180910390f35b34801561058d57600080fd5b5061059661138c565b6040516105a39190614c58565b60405180910390f35b3480156105b857600080fd5b506105d360048036038101906105ce9190613aa6565b611392565b005b3480156105e157600080fd5b506105fc60048036038101906105f79190613a65565b611418565b005b34801561060a57600080fd5b5061062560048036038101906106209190613aa6565b6114ae565b604051610632919061477e565b60405180910390f35b34801561064757600080fd5b50610662600480360381019061065d9190613aa6565b611560565b005b34801561067057600080fd5b5061068b60048036038101906106869190613843565b6115e6565b6040516106989190614c58565b60405180910390f35b3480156106ad57600080fd5b506106b661169e565b005b3480156106c457600080fd5b506106cd611726565b6040516106da9190614c58565b60405180910390f35b3480156106ef57600080fd5b5061070a60048036038101906107059190613aa6565b61172c565b604051610717919061477e565b60405180910390f35b34801561072c57600080fd5b50610747600480360381019061074291906139d7565b61179a565b005b34801561075557600080fd5b5061075e6118ab565b60405161076b919061477e565b60405180910390f35b34801561078057600080fd5b5061079b60048036038101906107969190613aa6565b6118d5565b005b3480156107a957600080fd5b506107b261195b565b6040516107bf9190614874565b60405180910390f35b3480156107d457600080fd5b506107ef60048036038101906107ea9190613843565b6119ed565b6040516107fc9190614c58565b60405180910390f35b34801561081157600080fd5b5061081a611a36565b6040516108279190614c58565b60405180910390f35b34801561083c57600080fd5b50610845611a40565b6040516108529190614874565b60405180910390f35b61087560048036038101906108709190613aa6565b611ace565b005b34801561088357600080fd5b5061089e6004803603810190610899919061399b565b611c3c565b005b3480156108ac57600080fd5b506108c760048036038101906108c29190613a65565b611dbd565b005b3480156108d557600080fd5b506108f060048036038101906108eb9190613920565b611ea9565b005b3480156108fe57600080fd5b50610907611f0b565b005b34801561091557600080fd5b50610930600480360381019061092b9190613aa6565b611fdc565b60405161093d9190614874565b60405180910390f35b34801561095257600080fd5b5061096d60048036038101906109689190613843565b612086565b60405161097a9190614c58565b60405180910390f35b34801561098f57600080fd5b506109986120cf565b6040516109a59190614874565b60405180910390f35b3480156109ba57600080fd5b506109d560048036038101906109d09190613aa6565b61215d565b6040516109e29190614874565b60405180910390f35b3480156109f757600080fd5b50610a0061223a565b604051610a0d9190614c58565b60405180910390f35b348015610a2257600080fd5b50610a3d6004803603810190610a389190613895565b612244565b604051610a4a9190614859565b60405180910390f35b348015610a5f57600080fd5b50610a7a6004803603810190610a759190613843565b6122d8565b005b600033905090565b60007f780e9d63000000000000000000000000000000000000000000000000000000007bffffffffffffffffffffffffffffffffffffffffffffffffffffffff1916827bffffffffffffffffffffffffffffffffffffffffffffffffffffffff19161480610af75750610af6826123d0565b5b9050919050565b606060008054610b0d90614fb3565b80601f0160208091040260200160405190810160405280929190818152602001828054610b3990614fb3565b8015610b865780601f10610b5b57610100808354040283529160200191610b86565b820191906000526020600020905b815481529060010190602001808311610b6957829003601f168201915b5050505050905090565b6000610b9b826124b2565b610bda576040517f08c379a0000000000000000000000000000000000000000000000000000000008152600401610bd190614b18565b60405180910390fd5b6004600083815260200190815260200160002060009054906101000a900473ffffffffffffffffffffffffffffffffffffffff169050919050565b6000610c20826114ae565b90508073ffffffffffffffffffffffffffffffffffffffff168373ffffffffffffffffffffffffffffffffffffffff161415610c91576040517f08c379a0000000000000000000000000000000000000000000000000000000008152600401610c8890614bb8565b60405180910390fd5b8073ffffffffffffffffffffffffffffffffffffffff16610cb0610a7c565b73ffffffffffffffffffffffffffffffffffffffff161480610cdf5750610cde81610cd9610a7c565b612244565b5b610d1e576040517f08c379a0000000000000000000000000000000000000000000000000000000008152600401610d1590614a78565b60405180910390fd5b610d28838361251e565b505050565b610d35610a7c565b73ffffffffffffffffffffffffffffffffffffffff16610d536118ab565b73ffffffffffffffffffffffffffffffffffffffff1614610da9576040517f08c379a0000000000000000000000000000000000000000000000000000000008152600401610da090614b38565b60405180910390fd5b8060169080519060200190610dbf929190613652565b5050565b6000600880549050905090565b6000600d60008373ffffffffffffffffffffffffffffffffffffffff1673ffffffffffffffffffffffffffffffffffffffff1681526020019081526020016000205411610e52576040517f08c379a0000000000000000000000000000000000000000000000000000000008152600401610e4990614998565b60405180910390fd5b6000600c5447610e629190614da0565b90506000600e60008473ffffffffffffffffffffffffffffffffffffffff1673ffffffffffffffffffffffffffffffffffffffff16815260200190815260200160002054600b54600d60008673ffffffffffffffffffffffffffffffffffffffff1673ffffffffffffffffffffffffffffffffffffffff1681526020019081526020016000205484610ef49190614e27565b610efe9190614df6565b610f089190614e81565b90506000811415610f4e576040517f08c379a0000000000000000000000000000000000000000000000000000000008152600401610f4590614a58565b60405180910390fd5b80600e60008573ffffffffffffffffffffffffffffffffffffffff1673ffffffffffffffffffffffffffffffffffffffff16815260200190815260200160002054610f999190614da0565b600e60008573ffffffffffffffffffffffffffffffffffffffff1673ffffffffffffffffffffffffffffffffffffffff1681526020019081526020016000208190555080600c54610fea9190614da0565b600c81905550610ffa83826125d7565b7fdf20fd1e76bc69d672e4814fafb2c449bba3a5369d8359adf9e05e6fde87b056838260405161102b929190614799565b60405180910390a1505050565b611049611043610a7c565b826126cb565b611088576040517f08c379a000000000000000000000000000000000000000000000000000000000815260040161107f90614c18565b60405180910390fd5b6110938383836127a9565b505050565b60006110a3836115e6565b82106110e4576040517f08c379a00000000000000000000000000000000000000000000000000000000081526004016110db906148d8565b60405180910390fd5b600660008473ffffffffffffffffffffffffffffffffffffffff1673ffffffffffffffffffffffffffffffffffffffff168152602001908152602001600020600083815260200190815260200160002054905092915050565b60145481565b6000600b54905090565b61116883838360405180602001604052806000815250611ea9565b505050565b6060600061117a836115e6565b905060008167ffffffffffffffff8111156111be577f4e487b7100000000000000000000000000000000000000000000000000000000600052604160045260246000fd5b6040519080825280602002602001820160405280156111ec5781602001602082028036833780820191505090505b50905060005b8281101561125c576112048582611098565b82828151811061123d577f4e487b7100000000000000000000000000000000000000000000000000000000600052603260045260246000fd5b602002602001018181525050808061125490614fe5565b9150506111f2565b508092505050919050565b6016805461127490614fb3565b80601f01602080910402602001604051908101604052809291908181526020018280546112a090614fb3565b80156112ed5780601f106112c2576101008083540402835291602001916112ed565b820191906000526020600020905b8154815290600101906020018083116112d057829003601f168201915b505050505081565b60006112ff610dc3565b8210611340576040517f08c379a000000000000000000000000000000000000000000000000000000000815260040161133790614c38565b60405180910390fd5b6008828154811061137a577f4e487b7100000000000000000000000000000000000000000000000000000000600052603260045260246000fd5b90600052602060002001549050919050565b60135481565b61139a610a7c565b73ffffffffffffffffffffffffffffffffffffffff166113b86118ab565b73ffffffffffffffffffffffffffffffffffffffff161461140e576040517f08c379a000000000000000000000000000000000000000000000000000000000815260040161140590614b38565b60405180910390fd5b8060158190555050565b611420610a7c565b73ffffffffffffffffffffffffffffffffffffffff1661143e6118ab565b73ffffffffffffffffffffffffffffffffffffffff1614611494576040517f08c379a000000000000000000000000000000000000000000000000000000000815260040161148b90614b38565b60405180910390fd5b80601290805190602001906114aa929190613652565b5050565b6000806002600084815260200190815260200160002060009054906101000a900473ffffffffffffffffffffffffffffffffffffffff169050600073ffffffffffffffffffffffffffffffffffffffff168173ffffffffffffffffffffffffffffffffffffffff161415611557576040517f08c379a000000000000000000000000000000000000000000000000000000000815260040161154e90614ab8565b60405180910390fd5b80915050919050565b611568610a7c565b73ffffffffffffffffffffffffffffffffffffffff166115866118ab565b73ffffffffffffffffffffffffffffffffffffffff16146115dc576040517f08c379a00000000000000000000000000000000000000000000000000000000081526004016115d390614b38565b60405180910390fd5b8060148190555050565b60008073ffffffffffffffffffffffffffffffffffffffff168273ffffffffffffffffffffffffffffffffffffffff161415611657576040517f08c379a000000000000000000000000000000000000000000000000000000000815260040161164e90614a98565b60405180910390fd5b600360008373ffffffffffffffffffffffffffffffffffffffff1673ffffffffffffffffffffffffffffffffffffffff168152602001908152602001600020549050919050565b6116a6610a7c565b73ffffffffffffffffffffffffffffffffffffffff166116c46118ab565b73ffffffffffffffffffffffffffffffffffffffff161461171a576040517f08c379a000000000000000000000000000000000000000000000000000000000815260040161171190614b38565b60405180910390fd5b6117246000612a05565b565b60155481565b6000600f8281548110611768577f4e487b7100000000000000000000000000000000000000000000000000000000600052603260045260246000fd5b9060005260206000200160009054906101000a900473ffffffffffffffffffffffffffffffffffffffff169050919050565b6117a2610a7c565b73ffffffffffffffffffffffffffffffffffffffff166117c06118ab565b73ffffffffffffffffffffffffffffffffffffffff1614611816576040517f08c379a000000000000000000000000000000000000000000000000000000000815260040161180d90614b38565b60405180910390fd5b6000611820610dc3565b905060145482826118319190614da0565b1115611872576040517f08c379a000000000000000000000000000000000000000000000000000000000815260040161186990614b98565b60405180910390fd5b60005b828110156118a55761189284828461188d9190614da0565b612acb565b808061189d90614fe5565b915050611875565b50505050565b6000600a60009054906101000a900473ffffffffffffffffffffffffffffffffffffffff16905090565b6118dd610a7c565b73ffffffffffffffffffffffffffffffffffffffff166118fb6118ab565b73ffffffffffffffffffffffffffffffffffffffff1614611951576040517f08c379a000000000000000000000000000000000000000000000000000000000815260040161194890614b38565b60405180910390fd5b8060108190555050565b60606001805461196a90614fb3565b80601f016020809104026020016040519081016040528092919081815260200182805461199690614fb3565b80156119e35780601f106119b8576101008083540402835291602001916119e3565b820191906000526020600020905b8154815290600101906020018083116119c657829003601f168201915b5050505050905090565b6000600e60008373ffffffffffffffffffffffffffffffffffffffff1673ffffffffffffffffffffffffffffffffffffffff168152602001908152602001600020549050919050565b6000601054905090565b60178054611a4d90614fb3565b80601f0160208091040260200160405190810160405280929190818152602001828054611a7990614fb3565b8015611ac65780601f10611a9b57610100808354040283529160200191611ac6565b820191906000526020600020905b815481529060010190602001808311611aa957829003601f168201915b505050505081565b6000611ad8610dc3565b9050601554421015611b1f576040517f08c379a0000000000000000000000000000000000000000000000000000000008152600401611b16906148b8565b60405180910390fd5b601354821115611b64576040517f08c379a0000000000000000000000000000000000000000000000000000000008152600401611b5b90614938565b60405180910390fd5b6014548282611b739190614da0565b1115611bb4576040517f08c379a0000000000000000000000000000000000000000000000000000000008152600401611bab90614918565b60405180910390fd5b81601054611bc29190614e27565b341015611c04576040517f08c379a0000000000000000000000000000000000000000000000000000000008152600401611bfb90614bd8565b60405180910390fd5b60005b82811015611c3757611c24338284611c1f9190614da0565b612acb565b8080611c2f90614fe5565b915050611c07565b505050565b611c44610a7c565b73ffffffffffffffffffffffffffffffffffffffff168273ffffffffffffffffffffffffffffffffffffffff161415611cb2576040517f08c379a0000000000000000000000000000000000000000000000000000000008152600401611ca9906149d8565b60405180910390fd5b8060056000611cbf610a7c565b73ffffffffffffffffffffffffffffffffffffffff1673ffffffffffffffffffffffffffffffffffffffff16815260200190815260200160002060008473ffffffffffffffffffffffffffffffffffffffff1673ffffffffffffffffffffffffffffffffffffffff16815260200190815260200160002060006101000a81548160ff0219169083151502179055508173ffffffffffffffffffffffffffffffffffffffff16611d6c610a7c565b73ffffffffffffffffffffffffffffffffffffffff167f17307eab39ab6107e8899845ad3d59bd9653f200f220920489ca2b5937696c3183604051611db19190614859565b60405180910390a35050565b611dc5610a7c565b73ffffffffffffffffffffffffffffffffffffffff16611de36118ab565b73ffffffffffffffffffffffffffffffffffffffff1614611e39576040517f08c379a0000000000000000000000000000000000000000000000000000000008152600401611e3090614b38565b60405180910390fd5b60001515601860009054906101000a900460ff16151514611e8f576040517f08c379a0000000000000000000000000000000000000000000000000000000008152600401611e8690614bf8565b60405180910390fd5b8060179080519060200190611ea5929190613652565b5050565b611eba611eb4610a7c565b836126cb565b611ef9576040517f08c379a0000000000000000000000000000000000000000000000000000000008152600401611ef090614c18565b60405180910390fd5b611f0584848484612ae9565b50505050565b611f13610a7c565b73ffffffffffffffffffffffffffffffffffffffff16611f316118ab565b73ffffffffffffffffffffffffffffffffffffffff1614611f87576040517f08c379a0000000000000000000000000000000000000000000000000000000008152600401611f7e90614b38565b60405180910390fd5b6001601860006101000a81548160ff0219169083151502179055507f92423ccd40e13759d50d24569dcbaccb20ade47247f3cf3e3951a9f29d2048b06017604051611fd29190614896565b60405180910390a1565b6060611fe7826124b2565b612026576040517f08c379a000000000000000000000000000000000000000000000000000000000815260040161201d90614b78565b60405180910390fd5b6000612030612b45565b90506000815111612050576040518060200160405280600081525061207e565b8061205a84612bd7565b601160405160200161206e93929190614738565b6040516020818303038152906040525b915050919050565b6000600d60008373ffffffffffffffffffffffffffffffffffffffff1673ffffffffffffffffffffffffffffffffffffffff168152602001908152602001600020549050919050565b601280546120dc90614fb3565b80601f016020809104026020016040519081016040528092919081815260200182805461210890614fb3565b80156121555780601f1061212a57610100808354040283529160200191612155565b820191906000526020600020905b81548152906001019060200180831161213857829003601f168201915b505050505081565b6060612167610dc3565b82106121a8576040517f08c379a000000000000000000000000000000000000000000000000000000000815260040161219f90614ad8565b60405180910390fd5b601780546121b590614fb3565b80601f01602080910402602001604051908101604052809291908181526020018280546121e190614fb3565b801561222e5780601f106122035761010080835404028352916020019161222e565b820191906000526020600020905b81548152906001019060200180831161221157829003601f168201915b50505050509050919050565b6000600c54905090565b6000600560008473ffffffffffffffffffffffffffffffffffffffff1673ffffffffffffffffffffffffffffffffffffffff16815260200190815260200160002060008373ffffffffffffffffffffffffffffffffffffffff1673ffffffffffffffffffffffffffffffffffffffff16815260200190815260200160002060009054906101000a900460ff16905092915050565b6122e0610a7c565b73ffffffffffffffffffffffffffffffffffffffff166122fe6118ab565b73ffffffffffffffffffffffffffffffffffffffff1614612354576040517f08c379a000000000000000000000000000000000000000000000000000000000815260040161234b90614b38565b60405180910390fd5b600073ffffffffffffffffffffffffffffffffffffffff168173ffffffffffffffffffffffffffffffffffffffff1614156123c4576040517f08c379a00000000000000000000000000000000000000000000000000000000081526004016123bb90614958565b60405180910390fd5b6123cd81612a05565b50565b60007f80ac58cd000000000000000000000000000000000000000000000000000000007bffffffffffffffffffffffffffffffffffffffffffffffffffffffff1916827bffffffffffffffffffffffffffffffffffffffffffffffffffffffff1916148061249b57507f5b5e139f000000000000000000000000000000000000000000000000000000007bffffffffffffffffffffffffffffffffffffffffffffffffffffffff1916827bffffffffffffffffffffffffffffffffffffffffffffffffffffffff1916145b806124ab57506124aa82612d84565b5b9050919050565b60008073ffffffffffffffffffffffffffffffffffffffff166002600084815260200190815260200160002060009054906101000a900473ffffffffffffffffffffffffffffffffffffffff1673ffffffffffffffffffffffffffffffffffffffff1614159050919050565b816004600083815260200190815260200160002060006101000a81548173ffffffffffffffffffffffffffffffffffffffff021916908373ffffffffffffffffffffffffffffffffffffffff160217905550808273ffffffffffffffffffffffffffffffffffffffff16612591836114ae565b73ffffffffffffffffffffffffffffffffffffffff167f8c5be1e5ebec7d5bd14f71427d1e84f3dd0314c0f7b2291e5b200ac8c7c3b92560405160405180910390a45050565b8047101561261a576040517f08c379a000000000000000000000000000000000000000000000000000000000815260040161261190614a18565b60405180910390fd5b60008273ffffffffffffffffffffffffffffffffffffffff168260405161264090614769565b60006040518083038185875af1925050503d806000811461267d576040519150601f19603f3d011682016040523d82523d6000602084013e612682565b606091505b50509050806126c6576040517f08c379a00000000000000000000000000000000000000000000000000000000081526004016126bd906149f8565b60405180910390fd5b505050565b60006126d6826124b2565b612715576040517f08c379a000000000000000000000000000000000000000000000000000000000815260040161270c90614a38565b60405180910390fd5b6000612720836114ae565b90508073ffffffffffffffffffffffffffffffffffffffff168473ffffffffffffffffffffffffffffffffffffffff16148061278f57508373ffffffffffffffffffffffffffffffffffffffff1661277784610b90565b73ffffffffffffffffffffffffffffffffffffffff16145b806127a0575061279f8185612244565b5b91505092915050565b8273ffffffffffffffffffffffffffffffffffffffff166127c9826114ae565b73ffffffffffffffffffffffffffffffffffffffff161461281f576040517f08c379a000000000000000000000000000000000000000000000000000000000815260040161281690614b58565b60405180910390fd5b600073ffffffffffffffffffffffffffffffffffffffff168273ffffffffffffffffffffffffffffffffffffffff16141561288f576040517f08c379a0000000000000000000000000000000000000000000000000000000008152600401612886906149b8565b60405180910390fd5b61289a838383612dee565b6128a560008261251e565b6001600360008573ffffffffffffffffffffffffffffffffffffffff1673ffffffffffffffffffffffffffffffffffffffff16815260200190815260200160002060008282546128f59190614e81565b925050819055506001600360008473ffffffffffffffffffffffffffffffffffffffff1673ffffffffffffffffffffffffffffffffffffffff168152602001908152602001600020600082825461294c9190614da0565b92505081905550816002600083815260200190815260200160002060006101000a81548173ffffffffffffffffffffffffffffffffffffffff021916908373ffffffffffffffffffffffffffffffffffffffff160217905550808273ffffffffffffffffffffffffffffffffffffffff168473ffffffffffffffffffffffffffffffffffffffff167fddf252ad1be2c89b69c2b068fc378daa952ba7f163c4a11628f55a4df523b3ef60405160405180910390a4505050565b6000600a60009054906101000a900473ffffffffffffffffffffffffffffffffffffffff16905081600a60006101000a81548173ffffffffffffffffffffffffffffffffffffffff021916908373ffffffffffffffffffffffffffffffffffffffff1602179055508173ffffffffffffffffffffffffffffffffffffffff168173ffffffffffffffffffffffffffffffffffffffff167f8be0079c531659141344cd1fd0a4f28419497f9722a3daafe3b4186f6b6457e060405160405180910390a35050565b612ae5828260405180602001604052806000815250612f02565b5050565b612af48484846127a9565b612b0084848484612f5d565b612b3f576040517f08c379a0000000000000000000000000000000000000000000000000000000008152600401612b36906148f8565b60405180910390fd5b50505050565b606060128054612b5490614fb3565b80601f0160208091040260200160405190810160405280929190818152602001828054612b8090614fb3565b8015612bcd5780601f10612ba257610100808354040283529160200191612bcd565b820191906000526020600020905b815481529060010190602001808311612bb057829003601f168201915b5050505050905090565b60606000821415612c1f576040518060400160405280600181526020017f30000000000000000000000000000000000000000000000000000000000000008152509050612d7f565b600082905060005b60008214612c51578080612c3a90614fe5565b915050600a82612c4a9190614df6565b9150612c27565b60008167ffffffffffffffff811115612c93577f4e487b7100000000000000000000000000000000000000000000000000000000600052604160045260246000fd5b6040519080825280601f01601f191660200182016040528015612cc55781602001600182028036833780820191505090505b5090505b60008514612d7857600182612cde9190614e81565b9150600a85612ced919061502e565b6030612cf99190614da0565b60f81b818381518110612d35577f4e487b7100000000000000000000000000000000000000000000000000000000600052603260045260246000fd5b60200101907effffffffffffffffffffffffffffffffffffffffffffffffffffffffffffff1916908160001a905350600a85612d719190614df6565b9450612cc9565b8093505050505b919050565b60007f01ffc9a7000000000000000000000000000000000000000000000000000000007bffffffffffffffffffffffffffffffffffffffffffffffffffffffff1916827bffffffffffffffffffffffffffffffffffffffffffffffffffffffff1916149050919050565b612df98383836130f4565b600073ffffffffffffffffffffffffffffffffffffffff168373ffffffffffffffffffffffffffffffffffffffff161415612e3c57612e37816130f9565b612e7b565b8173ffffffffffffffffffffffffffffffffffffffff168373ffffffffffffffffffffffffffffffffffffffff1614612e7a57612e798382613142565b5b5b600073ffffffffffffffffffffffffffffffffffffffff168273ffffffffffffffffffffffffffffffffffffffff161415612ebe57612eb9816132af565b612efd565b8273ffffffffffffffffffffffffffffffffffffffff168273ffffffffffffffffffffffffffffffffffffffff1614612efc57612efb82826133f2565b5b5b505050565b612f0c8383613471565b612f196000848484612f5d565b612f58576040517f08c379a0000000000000000000000000000000000000000000000000000000008152600401612f4f906148f8565b60405180910390fd5b505050565b6000612f7e8473ffffffffffffffffffffffffffffffffffffffff1661363f565b156130e7578373ffffffffffffffffffffffffffffffffffffffff1663150b7a02612fa7610a7c565b8786866040518563ffffffff1660e01b8152600401612fc994939291906147c2565b602060405180830381600087803b158015612fe357600080fd5b505af192505050801561301457506040513d601f19601f820116820180604052508101906130119190613a3c565b60015b613097573d8060008114613044576040519150601f19603f3d011682016040523d82523d6000602084013e613049565b606091505b5060008151141561308f576040517f08c379a0000000000000000000000000000000000000000000000000000000008152600401613086906148f8565b60405180910390fd5b805181602001fd5b63150b7a0260e01b7bffffffffffffffffffffffffffffffffffffffffffffffffffffffff1916817bffffffffffffffffffffffffffffffffffffffffffffffffffffffff1916149150506130ec565b600190505b949350505050565b505050565b6008805490506009600083815260200190815260200160002081905550600881908060018154018082558091505060019003906000526020600020016000909190919091505550565b6000600161314f846115e6565b6131599190614e81565b905060006007600084815260200190815260200160002054905081811461323e576000600660008673ffffffffffffffffffffffffffffffffffffffff1673ffffffffffffffffffffffffffffffffffffffff168152602001908152602001600020600084815260200190815260200160002054905080600660008773ffffffffffffffffffffffffffffffffffffffff1673ffffffffffffffffffffffffffffffffffffffff168152602001908152602001600020600084815260200190815260200160002081905550816007600083815260200190815260200160002081905550505b6007600084815260200190815260200160002060009055600660008573ffffffffffffffffffffffffffffffffffffffff1673ffffffffffffffffffffffffffffffffffffffff16815260200190815260200160002060008381526020019081526020016000206000905550505050565b600060016008805490506132c39190614e81565b9050600060096000848152602001908152602001600020549050600060088381548110613319577f4e487b7100000000000000000000000000000000000000000000000000000000600052603260045260246000fd5b906000526020600020015490508060088381548110613361577f4e487b7100000000000000000000000000000000000000000000000000000000600052603260045260246000fd5b9060005260206000200181905550816009600083815260200190815260200160002081905550600960008581526020019081526020016000206000905560088054806133d6577f4e487b7100000000000000000000000000000000000000000000000000000000600052603160045260246000fd5b6001900381819060005260206000200160009055905550505050565b60006133fd836115e6565b905081600660008573ffffffffffffffffffffffffffffffffffffffff1673ffffffffffffffffffffffffffffffffffffffff168152602001908152602001600020600083815260200190815260200160002081905550806007600084815260200190815260200160002081905550505050565b600073ffffffffffffffffffffffffffffffffffffffff168273ffffffffffffffffffffffffffffffffffffffff1614156134e1576040517f08c379a00000000000000000000000000000000000000000000000000000000081526004016134d890614af8565b60405180910390fd5b6134ea816124b2565b1561352a576040517f08c379a000000000000000000000000000000000000000000000000000000000815260040161352190614978565b60405180910390fd5b61353660008383612dee565b6001600360008473ffffffffffffffffffffffffffffffffffffffff1673ffffffffffffffffffffffffffffffffffffffff16815260200190815260200160002060008282546135869190614da0565b92505081905550816002600083815260200190815260200160002060006101000a81548173ffffffffffffffffffffffffffffffffffffffff021916908373ffffffffffffffffffffffffffffffffffffffff160217905550808273ffffffffffffffffffffffffffffffffffffffff16600073ffffffffffffffffffffffffffffffffffffffff167fddf252ad1be2c89b69c2b068fc378daa952ba7f163c4a11628f55a4df523b3ef60405160405180910390a45050565b600080823b905060008111915050919050565b82805461365e90614fb3565b90600052602060002090601f01602090048101928261368057600085556136c7565b82601f1061369957805160ff19168380011785556136c7565b828001600101855582156136c7579182015b828111156136c65782518255916020019190600101906136ab565b5b5090506136d491906136d8565b5090565b5b808211156136f15760008160009055506001016136d9565b5090565b600061370861370384614ca4565b614c73565b90508281526020810184848401111561372057600080fd5b61372b848285614f71565b509392505050565b600061374661374184614cd4565b614c73565b90508281526020810184848401111561375e57600080fd5b613769848285614f71565b509392505050565b6000813590506137808161512c565b92915050565b60008135905061379581615143565b92915050565b6000813590506137aa8161515a565b92915050565b6000813590506137bf81615171565b92915050565b6000815190506137d481615171565b92915050565b600082601f8301126137eb57600080fd5b81356137fb8482602086016136f5565b91505092915050565b600082601f83011261381557600080fd5b8135613825848260208601613733565b91505092915050565b60008135905061383d81615188565b92915050565b60006020828403121561385557600080fd5b600061386384828501613771565b91505092915050565b60006020828403121561387e57600080fd5b600061388c84828501613786565b91505092915050565b600080604083850312156138a857600080fd5b60006138b685828601613771565b92505060206138c785828601613771565b9150509250929050565b6000806000606084860312156138e657600080fd5b60006138f486828701613771565b935050602061390586828701613771565b92505060406139168682870161382e565b9150509250925092565b6000806000806080858703121561393657600080fd5b600061394487828801613771565b945050602061395587828801613771565b93505060406139668782880161382e565b925050606085013567ffffffffffffffff81111561398357600080fd5b61398f878288016137da565b91505092959194509250565b600080604083850312156139ae57600080fd5b60006139bc85828601613771565b92505060206139cd8582860161379b565b9150509250929050565b600080604083850312156139ea57600080fd5b60006139f885828601613771565b9250506020613a098582860161382e565b9150509250929050565b600060208284031215613a2557600080fd5b6000613a33848285016137b0565b91505092915050565b600060208284031215613a4e57600080fd5b6000613a5c848285016137c5565b91505092915050565b600060208284031215613a7757600080fd5b600082013567ffffffffffffffff811115613a9157600080fd5b613a9d84828501613804565b91505092915050565b600060208284031215613ab857600080fd5b6000613ac68482850161382e565b91505092915050565b6000613adb838361471a565b60208301905092915050565b613af081614f3b565b82525050565b613aff81614eb5565b82525050565b6000613b1082614d29565b613b1a8185614d57565b9350613b2583614d04565b8060005b83811015613b56578151613b3d8882613acf565b9750613b4883614d4a565b925050600181019050613b29565b5085935050505092915050565b613b6c81614ed9565b82525050565b6000613b7d82614d34565b613b878185614d68565b9350613b97818560208601614f80565b613ba08161511b565b840191505092915050565b6000613bb682614d3f565b613bc08185614d84565b9350613bd0818560208601614f80565b613bd98161511b565b840191505092915050565b6000613bef82614d3f565b613bf98185614d95565b9350613c09818560208601614f80565b80840191505092915050565b60008154613c2281614fb3565b613c2c8186614d84565b94506001821660008114613c475760018114613c5957613c8c565b60ff1983168652602086019350613c8c565b613c6285614d14565b60005b83811015613c8457815481890152600182019150602081019050613c65565b808801955050505b50505092915050565b60008154613ca281614fb3565b613cac8186614d95565b94506001821660008114613cc75760018114613cd857613d0b565b60ff19831686528186019350613d0b565b613ce185614d14565b60005b83811015613d0357815481890152600182019150602081019050613ce4565b838801955050505b50505092915050565b6000613d21601883614d84565b91507f53616c6520686173206e6f7420737461727465642079657400000000000000006000830152602082019050919050565b6000613d61602b83614d84565b91507f455243373231456e756d657261626c653a206f776e657220696e646578206f7560008301527f74206f6620626f756e64730000000000000000000000000000000000000000006020830152604082019050919050565b6000613dc7603283614d84565b91507f4552433732313a207472616e7366657220746f206e6f6e20455243373231526560008301527f63656976657220696d706c656d656e74657200000000000000000000000000006020830152604082019050919050565b6000613e2d601883614d84565b91507f45786365656473206d617820746f6b656e20737570706c7900000000000000006000830152602082019050919050565b6000613e6d602b83614d84565b91507f596f752063616e206d696e742061206d6178696d756d206f6620323020546f6b60008301527f656e73206174206f6e63650000000000000000000000000000000000000000006020830152604082019050919050565b6000613ed3602683614d84565b91507f4f776e61626c653a206e6577206f776e657220697320746865207a65726f206160008301527f64647265737300000000000000000000000000000000000000000000000000006020830152604082019050919050565b6000613f39601c83614d84565b91507f4552433732313a20746f6b656e20616c7265616479206d696e746564000000006000830152602082019050919050565b6000613f79602683614d84565b91507f5061796d656e7453706c69747465723a206163636f756e7420686173206e6f2060008301527f73686172657300000000000000000000000000000000000000000000000000006020830152604082019050919050565b6000613fdf602483614d84565b91507f4552433732313a207472616e7366657220746f20746865207a65726f2061646460008301527f72657373000000000000000000000000000000000000000000000000000000006020830152604082019050919050565b6000614045601983614d84565b91507f4552433732313a20617070726f766520746f2063616c6c6572000000000000006000830152602082019050919050565b6000614085603a83614d84565b91507f416464726573733a20756e61626c6520746f2073656e642076616c75652c207260008301527f6563697069656e74206d617920686176652072657665727465640000000000006020830152604082019050919050565b60006140eb601d83614d84565b91507f416464726573733a20696e73756666696369656e742062616c616e63650000006000830152602082019050919050565b600061412b602c83614d84565b91507f4552433732313a206f70657261746f7220717565727920666f72206e6f6e657860008301527f697374656e7420746f6b656e00000000000000000000000000000000000000006020830152604082019050919050565b6000614191602b83614d84565b91507f5061796d656e7453706c69747465723a206163636f756e74206973206e6f742060008301527f647565207061796d656e740000000000000000000000000000000000000000006020830152604082019050919050565b60006141f7603883614d84565b91507f4552433732313a20617070726f76652063616c6c6572206973206e6f74206f7760008301527f6e6572206e6f7220617070726f76656420666f7220616c6c00000000000000006020830152604082019050919050565b600061425d602a83614d84565b91507f4552433732313a2062616c616e636520717565727920666f7220746865207a6560008301527f726f2061646472657373000000000000000000000000000000000000000000006020830152604082019050919050565b60006142c3602983614d84565b91507f4552433732313a206f776e657220717565727920666f72206e6f6e657869737460008301527f656e7420746f6b656e00000000000000000000000000000000000000000000006020830152604082019050919050565b6000614329600a83614d84565b91507f496e76616c6964204944000000000000000000000000000000000000000000006000830152602082019050919050565b6000614369602083614d84565b91507f4552433732313a206d696e7420746f20746865207a65726f20616464726573736000830152602082019050919050565b60006143a9602c83614d84565b91507f4552433732313a20617070726f76656420717565727920666f72206e6f6e657860008301527f697374656e7420746f6b656e00000000000000000000000000000000000000006020830152604082019050919050565b600061440f602083614d84565b91507f4f776e61626c653a2063616c6c6572206973206e6f7420746865206f776e65726000830152602082019050919050565b600061444f602983614d84565b91507f4552433732313a207472616e73666572206f6620746f6b656e2074686174206960008301527f73206e6f74206f776e00000000000000000000000000000000000000000000006020830152604082019050919050565b60006144b5602f83614d84565b91507f4552433732314d657461646174613a2055524920717565727920666f72206e6f60008301527f6e6578697374656e7420746f6b656e00000000000000000000000000000000006020830152604082019050919050565b600061451b601e83614d84565b91507f45786365656473206d6178696d756d20416c6c796d616c20737570706c7900006000830152602082019050919050565b600061455b602183614d84565b91507f4552433732313a20617070726f76616c20746f2063757272656e74206f776e6560008301527f72000000000000000000000000000000000000000000000000000000000000006020830152604082019050919050565b60006145c1601983614d84565b91507f45746865722073656e74206973206e6f7420636f7272656374000000000000006000830152602082019050919050565b6000614601601683614d84565b91507f4c6963656e736520616c7265616479206c6f636b6564000000000000000000006000830152602082019050919050565b6000614641600083614d79565b9150600082019050919050565b600061465b603183614d84565b91507f4552433732313a207472616e736665722063616c6c6572206973206e6f74206f60008301527f776e6572206e6f7220617070726f7665640000000000000000000000000000006020830152604082019050919050565b60006146c1602c83614d84565b91507f455243373231456e756d657261626c653a20676c6f62616c20696e646578206f60008301527f7574206f6620626f756e647300000000000000000000000000000000000000006020830152604082019050919050565b61472381614f31565b82525050565b61473281614f31565b82525050565b60006147448286613be4565b91506147508285613be4565b915061475c8284613c95565b9150819050949350505050565b600061477482614634565b9150819050919050565b60006020820190506147936000830184613af6565b92915050565b60006040820190506147ae6000830185613ae7565b6147bb6020830184614729565b9392505050565b60006080820190506147d76000830187613af6565b6147e46020830186613af6565b6147f16040830185614729565b81810360608301526148038184613b72565b905095945050505050565b60006040820190506148236000830185613af6565b6148306020830184614729565b9392505050565b600060208201905081810360008301526148518184613b05565b905092915050565b600060208201905061486e6000830184613b63565b92915050565b6000602082019050818103600083015261488e8184613bab565b905092915050565b600060208201905081810360008301526148b08184613c15565b905092915050565b600060208201905081810360008301526148d181613d14565b9050919050565b600060208201905081810360008301526148f181613d54565b9050919050565b6000602082019050818103600083015261491181613dba565b9050919050565b6000602082019050818103600083015261493181613e20565b9050919050565b6000602082019050818103600083015261495181613e60565b9050919050565b6000602082019050818103600083015261497181613ec6565b9050919050565b6000602082019050818103600083015261499181613f2c565b9050919050565b600060208201905081810360008301526149b181613f6c565b9050919050565b600060208201905081810360008301526149d181613fd2565b9050919050565b600060208201905081810360008301526149f181614038565b9050919050565b60006020820190508181036000830152614a1181614078565b9050919050565b60006020820190508181036000830152614a31816140de565b9050919050565b60006020820190508181036000830152614a518161411e565b9050919050565b60006020820190508181036000830152614a7181614184565b9050919050565b60006020820190508181036000830152614a91816141ea565b9050919050565b60006020820190508181036000830152614ab181614250565b9050919050565b60006020820190508181036000830152614ad1816142b6565b9050919050565b60006020820190508181036000830152614af18161431c565b9050919050565b60006020820190508181036000830152614b118161435c565b9050919050565b60006020820190508181036000830152614b318161439c565b9050919050565b60006020820190508181036000830152614b5181614402565b9050919050565b60006020820190508181036000830152614b7181614442565b9050919050565b60006020820190508181036000830152614b91816144a8565b9050919050565b60006020820190508181036000830152614bb18161450e565b9050919050565b60006020820190508181036000830152614bd18161454e565b9050919050565b60006020820190508181036000830152614bf1816145b4565b9050919050565b60006020820190508181036000830152614c11816145f4565b9050919050565b60006020820190508181036000830152614c318161464e565b9050919050565b60006020820190508181036000830152614c51816146b4565b9050919050565b6000602082019050614c6d6000830184614729565b92915050565b6000604051905081810181811067ffffffffffffffff82111715614c9a57614c996150ec565b5b8060405250919050565b600067ffffffffffffffff821115614cbf57614cbe6150ec565b5b601f19601f8301169050602081019050919050565b600067ffffffffffffffff821115614cef57614cee6150ec565b5b601f19601f8301169050602081019050919050565b6000819050602082019050919050565b60008190508160005260206000209050919050565b600081519050919050565b600081519050919050565b600081519050919050565b6000602082019050919050565b600082825260208201905092915050565b600082825260208201905092915050565b600081905092915050565b600082825260208201905092915050565b600081905092915050565b6000614dab82614f31565b9150614db683614f31565b9250827fffffffffffffffffffffffffffffffffffffffffffffffffffffffffffffffff03821115614deb57614dea61505f565b5b828201905092915050565b6000614e0182614f31565b9150614e0c83614f31565b925082614e1c57614e1b61508e565b5b828204905092915050565b6000614e3282614f31565b9150614e3d83614f31565b9250817fffffffffffffffffffffffffffffffffffffffffffffffffffffffffffffffff0483118215151615614e7657614e7561505f565b5b828202905092915050565b6000614e8c82614f31565b9150614e9783614f31565b925082821015614eaa57614ea961505f565b5b828203905092915050565b6000614ec082614f11565b9050919050565b6000614ed282614f11565b9050919050565b60008115159050919050565b60007fffffffff0000000000000000000000000000000000000000000000000000000082169050919050565b600073ffffffffffffffffffffffffffffffffffffffff82169050919050565b6000819050919050565b6000614f4682614f4d565b9050919050565b6000614f5882614f5f565b9050919050565b6000614f6a82614f11565b9050919050565b82818337600083830152505050565b60005b83811015614f9e578082015181840152602081019050614f83565b83811115614fad576000848401525b50505050565b60006002820490506001821680614fcb57607f821691505b60208210811415614fdf57614fde6150bd565b5b50919050565b6000614ff082614f31565b91507fffffffffffffffffffffffffffffffffffffffffffffffffffffffffffffffff8214156150235761502261505f565b5b600182019050919050565b600061503982614f31565b915061504483614f31565b9250826150545761505361508e565b5b828206905092915050565b7f4e487b7100000000000000000000000000000000000000000000000000000000600052601160045260246000fd5b7f4e487b7100000000000000000000000000000000000000000000000000000000600052601260045260246000fd5b7f4e487b7100000000000000000000000000000000000000000000000000000000600052602260045260246000fd5b7f4e487b7100000000000000000000000000000000000000000000000000000000600052604160045260246000fd5b6000601f19601f8301169050919050565b61513581614eb5565b811461514057600080fd5b50565b61514c81614ec7565b811461515757600080fd5b50565b61516381614ed9565b811461516e57600080fd5b50565b61517a81614ee5565b811461518557600080fd5b50565b61519181614f31565b811461519c57600080fd5b5056fea26469706673582212204a67c8b9cf624c4b39a97980de1be6d45a6acb65fd5f411d250187ecbc05ad9264736f6c63430008000033",
  "linkReferences": {},
  "deployedLinkReferences": {}
}