{
  "_format": "hh-sol-artifact-1",
  "contractName": "FoundersCoin",
  "sourceName": "contracts/Contract.sol",
  "abi": [
    {
      "inputs": [
        {
          "internalType": "address[]",
          "name": "payees",
          "type": "address[]"
        },
        {
          "internalType": "uint256[]",
          "name": "splits",
          "type": "uint256[]"
        }
      ],
      "stateMutability": "nonpayable",
      "type": "constructor"
    },
    {
      "anonymous": false,
      "inputs": [
        {
          "indexed": true,
          "internalType": "address",
          "name": "owner",
          "type": "address"
        },
        {
          "indexed": true,
          "internalType": "address",
          "name": "approved",
          "type": "address"
        },
        {
          "indexed": true,
          "internalType": "uint256",
          "name": "tokenId",
          "type": "uint256"
        }
      ],
      "name": "Approval",
      "type": "event"
    },
    {
      "anonymous": false,
      "inputs": [
        {
          "indexed": true,
          "internalType": "address",
          "name": "owner",
          "type": "address"
        },
        {
          "indexed": true,
          "internalType": "address",
          "name": "operator",
          "type": "address"
        },
        {
          "indexed": false,
          "internalType": "bool",
          "name": "approved",
          "type": "bool"
        }
      ],
      "name": "ApprovalForAll",
      "type": "event"
    },
    {
      "anonymous": false,
      "inputs": [
        {
          "indexed": true,
          "internalType": "address",
          "name": "previousOwner",
          "type": "address"
        },
        {
          "indexed": true,
          "internalType": "address",
          "name": "newOwner",
          "type": "address"
        }
      ],
      "name": "OwnershipTransferred",
      "type": "event"
    },
    {
      "anonymous": false,
      "inputs": [
        {
          "indexed": false,
          "internalType": "address",
          "name": "account",
          "type": "address"
        },
        {
          "indexed": false,
          "internalType": "uint256",
          "name": "shares",
          "type": "uint256"
        }
      ],
      "name": "PayeeAdded",
      "type": "event"
    },
    {
      "anonymous": false,
      "inputs": [
        {
          "indexed": false,
          "internalType": "address",
          "name": "from",
          "type": "address"
        },
        {
          "indexed": false,
          "internalType": "uint256",
          "name": "amount",
          "type": "uint256"
        }
      ],
      "name": "PaymentReceived",
      "type": "event"
    },
    {
      "anonymous": false,
      "inputs": [
        {
          "indexed": false,
          "internalType": "address",
          "name": "to",
          "type": "address"
        },
        {
          "indexed": false,
          "internalType": "uint256",
          "name": "amount",
          "type": "uint256"
        }
      ],
      "name": "PaymentReleased",
      "type": "event"
    },
    {
      "anonymous": false,
      "inputs": [
        {
          "indexed": true,
          "internalType": "address",
          "name": "from",
          "type": "address"
        },
        {
          "indexed": true,
          "internalType": "address",
          "name": "to",
          "type": "address"
        },
        {
          "indexed": true,
          "internalType": "uint256",
          "name": "tokenId",
          "type": "uint256"
        }
      ],
      "name": "Transfer",
      "type": "event"
    },
    {
      "stateMutability": "payable",
      "type": "fallback"
    },
    {
      "inputs": [],
      "name": "TOTAL_SUPPLY",
      "outputs": [
        {
          "internalType": "uint256",
          "name": "",
          "type": "uint256"
        }
      ],
      "stateMutability": "view",
      "type": "function"
    },
    {
      "inputs": [
        {
          "internalType": "address",
          "name": "to",
          "type": "address"
        },
        {
          "internalType": "uint256",
          "name": "tokenId",
          "type": "uint256"
        }
      ],
      "name": "approve",
      "outputs": [],
      "stateMutability": "nonpayable",
      "type": "function"
    },
    {
      "inputs": [
        {
          "internalType": "address",
          "name": "owner",
          "type": "address"
        }
      ],
      "name": "balanceOf",
      "outputs": [
        {
          "internalType": "uint256",
          "name": "",
          "type": "uint256"
        }
      ],
      "stateMutability": "view",
      "type": "function"
    },
    {
      "inputs": [
        {
          "internalType": "uint256",
          "name": "tokenId",
          "type": "uint256"
        }
      ],
      "name": "getApproved",
      "outputs": [
        {
          "internalType": "address",
          "name": "",
          "type": "address"
        }
      ],
      "stateMutability": "view",
      "type": "function"
    },
    {
      "inputs": [
        {
          "internalType": "uint256",
          "name": "quantity",
          "type": "uint256"
        },
        {
          "internalType": "address",
          "name": "recipient",
          "type": "address"
        }
      ],
      "name": "gift",
      "outputs": [],
      "stateMutability": "nonpayable",
      "type": "function"
    },
    {
      "inputs": [
        {
          "internalType": "address",
          "name": "owner",
          "type": "address"
        },
        {
          "internalType": "address",
          "name": "operator",
          "type": "address"
        }
      ],
      "name": "isApprovedForAll",
      "outputs": [
        {
          "internalType": "bool",
          "name": "",
          "type": "bool"
        }
      ],
      "stateMutability": "view",
      "type": "function"
    },
    {
      "inputs": [],
      "name": "is_locked",
      "outputs": [
        {
          "internalType": "bool",
          "name": "",
          "type": "bool"
        }
      ],
      "stateMutability": "view",
      "type": "function"
    },
    {
      "inputs": [
        {
          "internalType": "uint256",
          "name": "quantity",
          "type": "uint256"
        }
      ],
      "name": "mint",
      "outputs": [],
      "stateMutability": "payable",
      "type": "function"
    },
    {
      "inputs": [],
      "name": "name",
      "outputs": [
        {
          "internalType": "string",
          "name": "",
          "type": "string"
        }
      ],
      "stateMutability": "view",
      "type": "function"
    },
    {
      "inputs": [],
      "name": "owner",
      "outputs": [
        {
          "internalType": "address",
          "name": "",
          "type": "address"
        }
      ],
      "stateMutability": "view",
      "type": "function"
    },
    {
      "inputs": [
        {
          "internalType": "uint256",
          "name": "tokenId",
          "type": "uint256"
        }
      ],
      "name": "ownerOf",
      "outputs": [
        {
          "internalType": "address",
          "name": "",
          "type": "address"
        }
      ],
      "stateMutability": "view",
      "type": "function"
    },
    {
      "inputs": [
        {
          "internalType": "uint256",
          "name": "index",
          "type": "uint256"
        }
      ],
      "name": "payee",
      "outputs": [
        {
          "internalType": "address",
          "name": "",
          "type": "address"
        }
      ],
      "stateMutability": "view",
      "type": "function"
    },
    {
      "inputs": [],
      "name": "price",
      "outputs": [
        {
          "internalType": "uint256",
          "name": "",
          "type": "uint256"
        }
      ],
      "stateMutability": "view",
      "type": "function"
    },
    {
      "inputs": [
        {
          "internalType": "address payable",
          "name": "account",
          "type": "address"
        }
      ],
      "name": "release",
      "outputs": [],
      "stateMutability": "nonpayable",
      "type": "function"
    },
    {
      "inputs": [
        {
          "internalType": "address",
          "name": "account",
          "type": "address"
        }
      ],
      "name": "released",
      "outputs": [
        {
          "internalType": "uint256",
          "name": "",
          "type": "uint256"
        }
      ],
      "stateMutability": "view",
      "type": "function"
    },
    {
      "inputs": [],
      "name": "renounceOwnership",
      "outputs": [],
      "stateMutability": "nonpayable",
      "type": "function"
    },
    {
      "inputs": [
        {
          "internalType": "address",
          "name": "from",
          "type": "address"
        },
        {
          "internalType": "address",
          "name": "to",
          "type": "address"
        },
        {
          "internalType": "uint256",
          "name": "tokenId",
          "type": "uint256"
        }
      ],
      "name": "safeTransferFrom",
      "outputs": [],
      "stateMutability": "nonpayable",
      "type": "function"
    },
    {
      "inputs": [
        {
          "internalType": "address",
          "name": "from",
          "type": "address"
        },
        {
          "internalType": "address",
          "name": "to",
          "type": "address"
        },
        {
          "internalType": "uint256",
          "name": "tokenId",
          "type": "uint256"
        },
        {
          "internalType": "bytes",
          "name": "_data",
          "type": "bytes"
        }
      ],
      "name": "safeTransferFrom",
      "outputs": [],
      "stateMutability": "nonpayable",
      "type": "function"
    },
    {
      "inputs": [
        {
          "internalType": "address",
          "name": "operator",
          "type": "address"
        },
        {
          "internalType": "bool",
          "name": "approved",
          "type": "bool"
        }
      ],
      "name": "setApprovalForAll",
      "outputs": [],
      "stateMutability": "nonpayable",
      "type": "function"
    },
    {
      "inputs": [
        {
          "internalType": "string",
          "name": "baseURI",
          "type": "string"
        },
        {
          "internalType": "string",
          "name": "suffix",
          "type": "string"
        }
      ],
      "name": "setBaseURI",
      "outputs": [],
      "stateMutability": "nonpayable",
      "type": "function"
    },
    {
      "inputs": [
        {
          "internalType": "bool",
          "name": "is_locked_",
          "type": "bool"
        }
      ],
      "name": "setLocked",
      "outputs": [],
      "stateMutability": "nonpayable",
      "type": "function"
    },
    {
      "inputs": [
        {
          "internalType": "uint256",
          "name": "maxSupply",
          "type": "uint256"
        }
      ],
      "name": "setMaxSupply",
      "outputs": [],
      "stateMutability": "nonpayable",
      "type": "function"
    },
    {
      "inputs": [
        {
          "internalType": "uint256",
          "name": "newPrice",
          "type": "uint256"
        }
      ],
      "name": "setPrice",
      "outputs": [],
      "stateMutability": "nonpayable",
      "type": "function"
    },
    {
      "inputs": [
        {
          "internalType": "address",
          "name": "account",
          "type": "address"
        }
      ],
      "name": "shares",
      "outputs": [
        {
          "internalType": "uint256",
          "name": "",
          "type": "uint256"
        }
      ],
      "stateMutability": "view",
      "type": "function"
    },
    {
      "inputs": [
        {
          "internalType": "bytes4",
          "name": "interfaceId",
          "type": "bytes4"
        }
      ],
      "name": "supportsInterface",
      "outputs": [
        {
          "internalType": "bool",
          "name": "",
          "type": "bool"
        }
      ],
      "stateMutability": "view",
      "type": "function"
    },
    {
      "inputs": [],
      "name": "symbol",
      "outputs": [
        {
          "internalType": "string",
          "name": "",
          "type": "string"
        }
      ],
      "stateMutability": "view",
      "type": "function"
    },
    {
      "inputs": [
        {
          "internalType": "uint256",
          "name": "index",
          "type": "uint256"
        }
      ],
      "name": "tokenByIndex",
      "outputs": [
        {
          "internalType": "uint256",
          "name": "",
          "type": "uint256"
        }
      ],
      "stateMutability": "view",
      "type": "function"
    },
    {
      "inputs": [
        {
          "internalType": "address",
          "name": "owner",
          "type": "address"
        },
        {
          "internalType": "uint256",
          "name": "index",
          "type": "uint256"
        }
      ],
      "name": "tokenOfOwnerByIndex",
      "outputs": [
        {
          "internalType": "uint256",
          "name": "tokenId",
          "type": "uint256"
        }
      ],
      "stateMutability": "view",
      "type": "function"
    },
    {
      "inputs": [
        {
          "internalType": "uint256",
          "name": "tokenId",
          "type": "uint256"
        }
      ],
      "name": "tokenURI",
      "outputs": [
        {
          "internalType": "string",
          "name": "",
          "type": "string"
        }
      ],
      "stateMutability": "view",
      "type": "function"
    },
    {
      "inputs": [],
      "name": "totalReleased",
      "outputs": [
        {
          "internalType": "uint256",
          "name": "",
          "type": "uint256"
        }
      ],
      "stateMutability": "view",
      "type": "function"
    },
    {
      "inputs": [],
      "name": "totalShares",
      "outputs": [
        {
          "internalType": "uint256",
          "name": "",
          "type": "uint256"
        }
      ],
      "stateMutability": "view",
      "type": "function"
    },
    {
      "inputs": [],
      "name": "totalSupply",
      "outputs": [
        {
          "internalType": "uint256",
          "name": "",
          "type": "uint256"
        }
      ],
      "stateMutability": "view",
      "type": "function"
    },
    {
      "inputs": [
        {
          "internalType": "address",
          "name": "from",
          "type": "address"
        },
        {
          "internalType": "address",
          "name": "to",
          "type": "address"
        },
        {
          "internalType": "uint256",
          "name": "tokenId",
          "type": "uint256"
        }
      ],
      "name": "transferFrom",
      "outputs": [],
      "stateMutability": "nonpayable",
      "type": "function"
    },
    {
      "inputs": [
        {
          "internalType": "address",
          "name": "newOwner",
          "type": "address"
        }
      ],
      "name": "transferOwnership",
      "outputs": [],
      "stateMutability": "nonpayable",
      "type": "function"
    },
    {
      "stateMutability": "payable",
      "type": "receive"
    }
  ],
  "bytecode": "0x6080604052610834600b556001600c60006101000a81548160ff021916908315150217905550668e1bc9bf040000600d556040518060400160405280602081526020017f68747470733a2f2f7777772e776562736974652e636f6d2f676f6c642e676966815250600e90805190602001906200007d929190620005cd565b5060405180602001604052806000815250600f9080519060200190620000a5929190620005cd565b50348015620000b357600080fd5b50604051620052b3380380620052b38339818101604052810190620000d99190620007ef565b81816040518060400160405280600d81526020017f466f756e6465727320436f696e0000000000000000000000000000000000000081525060405180602001604052806000815250816000908051906020019062000139929190620005cd565b50806001908051906020019062000152929190620005cd565b5050506200017562000169620002c560201b60201c565b620002cd60201b60201c565b8051825114620001bc576040517f08c379a0000000000000000000000000000000000000000000000000000000008152600401620001b39062000a8f565b60405180910390fd5b600082511162000203576040517f08c379a0000000000000000000000000000000000000000000000000000000008152600401620001fa9062000ad3565b60405180910390fd5b60005b8251811015620002ba57620002a48382815181106200024e577f4e487b7100000000000000000000000000000000000000000000000000000000600052603260045260246000fd5b602002602001015183838151811062000290577f4e487b7100000000000000000000000000000000000000000000000000000000600052603260045260246000fd5b60200260200101516200039360201b60201c565b8080620002b19062000c8b565b91505062000206565b505050505062000d9a565b600033905090565b6000600560009054906101000a900473ffffffffffffffffffffffffffffffffffffffff16905081600560006101000a81548173ffffffffffffffffffffffffffffffffffffffff021916908373ffffffffffffffffffffffffffffffffffffffff1602179055508173ffffffffffffffffffffffffffffffffffffffff168173ffffffffffffffffffffffffffffffffffffffff167f8be0079c531659141344cd1fd0a4f28419497f9722a3daafe3b4186f6b6457e060405160405180910390a35050565b600073ffffffffffffffffffffffffffffffffffffffff168273ffffffffffffffffffffffffffffffffffffffff16141562000406576040517f08c379a0000000000000000000000000000000000000000000000000000000008152600401620003fd9062000a6d565b60405180910390fd5b600081116200044c576040517f08c379a0000000000000000000000000000000000000000000000000000000008152600401620004439062000af5565b60405180910390fd5b6000600860008473ffffffffffffffffffffffffffffffffffffffff1673ffffffffffffffffffffffffffffffffffffffff1681526020019081526020016000205414620004d1576040517f08c379a0000000000000000000000000000000000000000000000000000000008152600401620004c89062000ab1565b60405180910390fd5b600a829080600181540180825580915050600190039060005260206000200160009091909190916101000a81548173ffffffffffffffffffffffffffffffffffffffff021916908373ffffffffffffffffffffffffffffffffffffffff16021790555080600860008473ffffffffffffffffffffffffffffffffffffffff1673ffffffffffffffffffffffffffffffffffffffff168152602001908152602001600020819055508060065462000588919062000bba565b6006819055507f40c340f65e17194d14ddddb073d3c9f888e3cb52b5aae0c6c7706b4fbc905fac8282604051620005c192919062000a40565b60405180910390a15050565b828054620005db9062000c55565b90600052602060002090601f016020900481019282620005ff57600085556200064b565b82601f106200061a57805160ff19168380011785556200064b565b828001600101855582156200064b579182015b828111156200064a5782518255916020019190600101906200062d565b5b5090506200065a91906200065e565b5090565b5b80821115620006795760008160009055506001016200065f565b5090565b6000620006946200068e8462000b4b565b62000b17565b90508083825260208201905082856020860282011115620006b457600080fd5b60005b85811015620006e85781620006cd888262000767565b845260208401935060208301925050600181019050620006b7565b5050509392505050565b600062000709620007038462000b7a565b62000b17565b905080838252602082019050828560208602820111156200072957600080fd5b60005b858110156200075d5781620007428882620007d8565b8452602084019350602083019250506001810190506200072c565b5050509392505050565b600081519050620007788162000d66565b92915050565b600082601f8301126200079057600080fd5b8151620007a28482602086016200067d565b91505092915050565b600082601f830112620007bd57600080fd5b8151620007cf848260208601620006f2565b91505092915050565b600081519050620007e98162000d80565b92915050565b600080604083850312156200080357600080fd5b600083015167ffffffffffffffff8111156200081e57600080fd5b6200082c858286016200077e565b925050602083015167ffffffffffffffff8111156200084a57600080fd5b6200085885828601620007ab565b9150509250929050565b6200086d8162000c17565b82525050565b600062000882602c8362000ba9565b91507f5061796d656e7453706c69747465723a206163636f756e74206973207468652060008301527f7a65726f206164647265737300000000000000000000000000000000000000006020830152604082019050919050565b6000620008ea60328362000ba9565b91507f5061796d656e7453706c69747465723a2070617965657320616e64207368617260008301527f6573206c656e677468206d69736d6174636800000000000000000000000000006020830152604082019050919050565b600062000952602b8362000ba9565b91507f5061796d656e7453706c69747465723a206163636f756e7420616c726561647960008301527f20686173207368617265730000000000000000000000000000000000000000006020830152604082019050919050565b6000620009ba601a8362000ba9565b91507f5061796d656e7453706c69747465723a206e6f207061796565730000000000006000830152602082019050919050565b6000620009fc601d8362000ba9565b91507f5061796d656e7453706c69747465723a207368617265732061726520300000006000830152602082019050919050565b62000a3a8162000c4b565b82525050565b600060408201905062000a57600083018562000862565b62000a66602083018462000a2f565b9392505050565b6000602082019050818103600083015262000a888162000873565b9050919050565b6000602082019050818103600083015262000aaa81620008db565b9050919050565b6000602082019050818103600083015262000acc8162000943565b9050919050565b6000602082019050818103600083015262000aee81620009ab565b9050919050565b6000602082019050818103600083015262000b1081620009ed565b9050919050565b6000604051905081810181811067ffffffffffffffff8211171562000b415762000b4062000d37565b5b8060405250919050565b600067ffffffffffffffff82111562000b695762000b6862000d37565b5b602082029050602081019050919050565b600067ffffffffffffffff82111562000b985762000b9762000d37565b5b602082029050602081019050919050565b600082825260208201905092915050565b600062000bc78262000c4b565b915062000bd48362000c4b565b9250827fffffffffffffffffffffffffffffffffffffffffffffffffffffffffffffffff0382111562000c0c5762000c0b62000cd9565b5b828201905092915050565b600062000c248262000c2b565b9050919050565b600073ffffffffffffffffffffffffffffffffffffffff82169050919050565b6000819050919050565b6000600282049050600182168062000c6e57607f821691505b6020821081141562000c855762000c8462000d08565b5b50919050565b600062000c988262000c4b565b91507fffffffffffffffffffffffffffffffffffffffffffffffffffffffffffffffff82141562000cce5762000ccd62000cd9565b5b600182019050919050565b7f4e487b7100000000000000000000000000000000000000000000000000000000600052601160045260246000fd5b7f4e487b7100000000000000000000000000000000000000000000000000000000600052602260045260246000fd5b7f4e487b7100000000000000000000000000000000000000000000000000000000600052604160045260246000fd5b62000d718162000c17565b811462000d7d57600080fd5b50565b62000d8b8162000c4b565b811462000d9757600080fd5b50565b6145098062000daa6000396000f3fe6080604052600436106101fd5760003560e01c806383a076be1161010d578063a0712d68116100a0578063c87b56dd1161006f578063c87b56dd1461077c578063ce7c2ac2146107b9578063e33b7de3146107f6578063e985e9c514610821578063f2fde38b1461085e57610244565b8063a0712d68146106e3578063a22cb465146106ff578063a63c500f14610728578063b88d4fde1461075357610244565b806391b7f5ed116100dc57806391b7f5ed1461062757806395d89b41146106505780639852595c1461067b578063a035b1fe146106b857610244565b806383a076be1461056b5780638b83209b146105945780638da5cb5b146105d1578063902d55a5146105fc57610244565b80632f745c59116101905780636352211e1161015f5780636352211e146104885780636790a9de146104c55780636f8b44b0146104ee57806370a0823114610517578063715018a61461055457610244565b80632f745c59146103ba5780633a98ef39146103f757806342842e0e146104225780634f6ccce71461044b57610244565b806318160ddd116101cc57806318160ddd14610314578063191655871461033f578063211e28b61461036857806323b872dd1461039157610244565b806301ffc9a71461024657806306fdde0314610283578063081812fc146102ae578063095ea7b3146102eb57610244565b36610244577f6ef95f06320e7a25a04a175ca677b7052bdd97131872c2192525a629f51be77061022b610887565b3460405161023a929190613bdf565b60405180910390a1005b005b34801561025257600080fd5b5061026d60048036038101906102689190612ec2565b61088f565b60405161027a9190613c08565b60405180910390f35b34801561028f57600080fd5b50610298610909565b6040516102a59190613c23565b60405180910390f35b3480156102ba57600080fd5b506102d560048036038101906102d09190612f80565b61099b565b6040516102e29190613b4f565b60405180910390f35b3480156102f757600080fd5b50610312600480360381019061030d9190612e5d565b610a20565b005b34801561032057600080fd5b50610329610b38565b6040516103369190613fc5565b60405180910390f35b34801561034b57600080fd5b5061036660048036038101906103619190612cf2565b610b45565b005b34801561037457600080fd5b5061038f600480360381019061038a9190612e99565b610dad565b005b34801561039d57600080fd5b506103b860048036038101906103b39190612d57565b610e46565b005b3480156103c657600080fd5b506103e160048036038101906103dc9190612e5d565b610ea6565b6040516103ee9190613fc5565b60405180910390f35b34801561040357600080fd5b5061040c611015565b6040516104199190613fc5565b60405180910390f35b34801561042e57600080fd5b5061044960048036038101906104449190612d57565b61101f565b005b34801561045757600080fd5b50610472600480360381019061046d9190612f80565b61103f565b60405161047f9190613fc5565b60405180910390f35b34801561049457600080fd5b506104af60048036038101906104aa9190612f80565b611092565b6040516104bc9190613b4f565b60405180910390f35b3480156104d157600080fd5b506104ec60048036038101906104e79190612f14565b611175565b005b3480156104fa57600080fd5b5061051560048036038101906105109190612f80565b611223565b005b34801561052357600080fd5b5061053e60048036038101906105399190612cc9565b6112f2565b60405161054b9190613fc5565b60405180910390f35b34801561056057600080fd5b50610569611438565b005b34801561057757600080fd5b50610592600480360381019061058d9190612fa9565b6114c0565b005b3480156105a057600080fd5b506105bb60048036038101906105b69190612f80565b6115cf565b6040516105c89190613b4f565b60405180910390f35b3480156105dd57600080fd5b506105e661163d565b6040516105f39190613b4f565b60405180910390f35b34801561060857600080fd5b50610611611667565b60405161061e9190613fc5565b60405180910390f35b34801561063357600080fd5b5061064e60048036038101906106499190612f80565b61166d565b005b34801561065c57600080fd5b506106656116f3565b6040516106729190613c23565b60405180910390f35b34801561068757600080fd5b506106a2600480360381019061069d9190612cc9565b611785565b6040516106af9190613fc5565b60405180910390f35b3480156106c457600080fd5b506106cd6117ce565b6040516106da9190613fc5565b60405180910390f35b6106fd60048036038101906106f89190612f80565b6117d4565b005b34801561070b57600080fd5b5061072660048036038101906107219190612e21565b6119a1565b005b34801561073457600080fd5b5061073d611b22565b60405161074a9190613c08565b60405180910390f35b34801561075f57600080fd5b5061077a60048036038101906107759190612da6565b611b35565b005b34801561078857600080fd5b506107a3600480360381019061079e9190612f80565b611b97565b6040516107b09190613c23565b60405180910390f35b3480156107c557600080fd5b506107e060048036038101906107db9190612cc9565b611c16565b6040516107ed9190613fc5565b60405180910390f35b34801561080257600080fd5b5061080b611c5f565b6040516108189190613fc5565b60405180910390f35b34801561082d57600080fd5b5061084860048036038101906108439190612d1b565b611c69565b6040516108559190613c08565b60405180910390f35b34801561086a57600080fd5b5061088560048036038101906108809190612cc9565b611cfd565b005b600033905090565b60007f780e9d63000000000000000000000000000000000000000000000000000000007bffffffffffffffffffffffffffffffffffffffffffffffffffffffff1916827bffffffffffffffffffffffffffffffffffffffffffffffffffffffff19161480610902575061090182611df5565b5b9050919050565b606060008054610918906142e7565b80601f0160208091040260200160405190810160405280929190818152602001828054610944906142e7565b80156109915780601f1061096657610100808354040283529160200191610991565b820191906000526020600020905b81548152906001019060200180831161097457829003601f168201915b5050505050905090565b60006109a682611ed7565b6109e5576040517f08c379a00000000000000000000000000000000000000000000000000000000081526004016109dc90613ea5565b60405180910390fd5b6003600083815260200190815260200160002060009054906101000a900473ffffffffffffffffffffffffffffffffffffffff169050919050565b6000610a2b82611092565b90508073ffffffffffffffffffffffffffffffffffffffff168373ffffffffffffffffffffffffffffffffffffffff161415610a9c576040517f08c379a0000000000000000000000000000000000000000000000000000000008152600401610a9390613f25565b60405180910390fd5b8073ffffffffffffffffffffffffffffffffffffffff16610abb610887565b73ffffffffffffffffffffffffffffffffffffffff161480610aea5750610ae981610ae4610887565b611c69565b5b610b29576040517f08c379a0000000000000000000000000000000000000000000000000000000008152600401610b2090613de5565b60405180910390fd5b610b338383611f85565b505050565b6000600280549050905090565b6000600860008373ffffffffffffffffffffffffffffffffffffffff1673ffffffffffffffffffffffffffffffffffffffff1681526020019081526020016000205411610bc7576040517f08c379a0000000000000000000000000000000000000000000000000000000008152600401610bbe90613ce5565b60405180910390fd5b600060075447610bd791906140d4565b90506000600960008473ffffffffffffffffffffffffffffffffffffffff1673ffffffffffffffffffffffffffffffffffffffff16815260200190815260200160002054600654600860008673ffffffffffffffffffffffffffffffffffffffff1673ffffffffffffffffffffffffffffffffffffffff1681526020019081526020016000205484610c69919061415b565b610c73919061412a565b610c7d91906141b5565b90506000811415610cc3576040517f08c379a0000000000000000000000000000000000000000000000000000000008152600401610cba90613dc5565b60405180910390fd5b80600960008573ffffffffffffffffffffffffffffffffffffffff1673ffffffffffffffffffffffffffffffffffffffff16815260200190815260200160002054610d0e91906140d4565b600960008573ffffffffffffffffffffffffffffffffffffffff1673ffffffffffffffffffffffffffffffffffffffff1681526020019081526020016000208190555080600754610d5f91906140d4565b600781905550610d6f838261203e565b7fdf20fd1e76bc69d672e4814fafb2c449bba3a5369d8359adf9e05e6fde87b0568382604051610da0929190613b6a565b60405180910390a1505050565b610db5610887565b73ffffffffffffffffffffffffffffffffffffffff16610dd361163d565b73ffffffffffffffffffffffffffffffffffffffff1614610e29576040517f08c379a0000000000000000000000000000000000000000000000000000000008152600401610e2090613ec5565b60405180910390fd5b80600c60006101000a81548160ff02191690831515021790555050565b610e57610e51610887565b82612132565b610e96576040517f08c379a0000000000000000000000000000000000000000000000000000000008152600401610e8d90613f65565b60405180910390fd5b610ea1838383612210565b505050565b6000610eb1836112f2565b8210610ef2576040517f08c379a0000000000000000000000000000000000000000000000000000000008152600401610ee990613c65565b60405180910390fd5b6000805b600280549050811015610fcb5760028181548110610f3d577f4e487b7100000000000000000000000000000000000000000000000000000000600052603260045260246000fd5b9060005260206000200160009054906101000a900473ffffffffffffffffffffffffffffffffffffffff1673ffffffffffffffffffffffffffffffffffffffff168573ffffffffffffffffffffffffffffffffffffffff161415610fba5783821415610fad57809250505061100f565b81610fb790614319565b91505b80610fc490614319565b9050610ef6565b50600061100d576040517f08c379a000000000000000000000000000000000000000000000000000000000815260040161100490613c65565b60405180910390fd5b505b92915050565b6000600654905090565b61103a83838360405180602001604052806000815250611b35565b505050565b6000611049610b38565b821061108a576040517f08c379a000000000000000000000000000000000000000000000000000000000815260040161108190613f85565b60405180910390fd5b819050919050565b600080600283815481106110cf577f4e487b7100000000000000000000000000000000000000000000000000000000600052603260045260246000fd5b9060005260206000200160009054906101000a900473ffffffffffffffffffffffffffffffffffffffff169050600073ffffffffffffffffffffffffffffffffffffffff168173ffffffffffffffffffffffffffffffffffffffff16141561116c576040517f08c379a000000000000000000000000000000000000000000000000000000000815260040161116390613e25565b60405180910390fd5b80915050919050565b61117d610887565b73ffffffffffffffffffffffffffffffffffffffff1661119b61163d565b73ffffffffffffffffffffffffffffffffffffffff16146111f1576040517f08c379a00000000000000000000000000000000000000000000000000000000081526004016111e890613ec5565b60405180910390fd5b81600e9080519060200190611207929190612ad8565b5080600f908051906020019061121e929190612ad8565b505050565b61122b610887565b73ffffffffffffffffffffffffffffffffffffffff1661124961163d565b73ffffffffffffffffffffffffffffffffffffffff161461129f576040517f08c379a000000000000000000000000000000000000000000000000000000000815260040161129690613ec5565b60405180910390fd5b6112a7610b38565b81116112e8576040517f08c379a00000000000000000000000000000000000000000000000000000000081526004016112df90613d05565b60405180910390fd5b80600b8190555050565b60008073ffffffffffffffffffffffffffffffffffffffff168273ffffffffffffffffffffffffffffffffffffffff161415611363576040517f08c379a000000000000000000000000000000000000000000000000000000000815260040161135a90613e05565b60405180910390fd5b600080600090505b60028054905081101561142e57600281815481106113b2577f4e487b7100000000000000000000000000000000000000000000000000000000600052603260045260246000fd5b9060005260206000200160009054906101000a900473ffffffffffffffffffffffffffffffffffffffff1673ffffffffffffffffffffffffffffffffffffffff168473ffffffffffffffffffffffffffffffffffffffff16141561141d578161141a90614319565b91505b8061142790614319565b905061136b565b5080915050919050565b611440610887565b73ffffffffffffffffffffffffffffffffffffffff1661145e61163d565b73ffffffffffffffffffffffffffffffffffffffff16146114b4576040517f08c379a00000000000000000000000000000000000000000000000000000000081526004016114ab90613ec5565b60405180910390fd5b6114be60006123ef565b565b6114c8610887565b73ffffffffffffffffffffffffffffffffffffffff166114e661163d565b73ffffffffffffffffffffffffffffffffffffffff161461153c576040517f08c379a000000000000000000000000000000000000000000000000000000000815260040161153390613ec5565b60405180910390fd5b6000611546610b38565b9050600b54838261155791906140d4565b1115611598576040517f08c379a000000000000000000000000000000000000000000000000000000000815260040161158f90613c45565b60405180910390fd5b60005b838110156115c9576115b88382846115b391906140d4565b6124b5565b806115c290614319565b905061159b565b50505050565b6000600a828154811061160b577f4e487b7100000000000000000000000000000000000000000000000000000000600052603260045260246000fd5b9060005260206000200160009054906101000a900473ffffffffffffffffffffffffffffffffffffffff169050919050565b6000600560009054906101000a900473ffffffffffffffffffffffffffffffffffffffff16905090565b600b5481565b611675610887565b73ffffffffffffffffffffffffffffffffffffffff1661169361163d565b73ffffffffffffffffffffffffffffffffffffffff16146116e9576040517f08c379a00000000000000000000000000000000000000000000000000000000081526004016116e090613ec5565b60405180910390fd5b80600d8190555050565b606060018054611702906142e7565b80601f016020809104026020016040519081016040528092919081815260200182805461172e906142e7565b801561177b5780601f106117505761010080835404028352916020019161177b565b820191906000526020600020905b81548152906001019060200180831161175e57829003601f168201915b5050505050905090565b6000600960008373ffffffffffffffffffffffffffffffffffffffff1673ffffffffffffffffffffffffffffffffffffffff168152602001908152602001600020549050919050565b600d5481565b60006117de610b38565b9050600c60009054906101000a900460ff1615611830576040517f08c379a000000000000000000000000000000000000000000000000000000000815260040161182790613fa5565b60405180910390fd5b6006821115611874576040517f08c379a000000000000000000000000000000000000000000000000000000000815260040161186b90613e65565b60405180910390fd5b600682611880336112f2565b61188a91906140d4565b11156118cb576040517f08c379a00000000000000000000000000000000000000000000000000000000081526004016118c290613e45565b60405180910390fd5b600b5482826118da91906140d4565b111561191b576040517f08c379a000000000000000000000000000000000000000000000000000000000815260040161191290613c45565b60405180910390fd5b81600d54611929919061415b565b34101561196b576040517f08c379a000000000000000000000000000000000000000000000000000000000815260040161196290613f45565b60405180910390fd5b60005b8281101561199c5761198b33828461198691906140d4565b6124b5565b8061199590614319565b905061196e565b505050565b6119a9610887565b73ffffffffffffffffffffffffffffffffffffffff168273ffffffffffffffffffffffffffffffffffffffff161415611a17576040517f08c379a0000000000000000000000000000000000000000000000000000000008152600401611a0e90613d45565b60405180910390fd5b8060046000611a24610887565b73ffffffffffffffffffffffffffffffffffffffff1673ffffffffffffffffffffffffffffffffffffffff16815260200190815260200160002060008473ffffffffffffffffffffffffffffffffffffffff1673ffffffffffffffffffffffffffffffffffffffff16815260200190815260200160002060006101000a81548160ff0219169083151502179055508173ffffffffffffffffffffffffffffffffffffffff16611ad1610887565b73ffffffffffffffffffffffffffffffffffffffff167f17307eab39ab6107e8899845ad3d59bd9653f200f220920489ca2b5937696c3183604051611b169190613c08565b60405180910390a35050565b600c60009054906101000a900460ff1681565b611b46611b40610887565b83612132565b611b85576040517f08c379a0000000000000000000000000000000000000000000000000000000008152600401611b7c90613f65565b60405180910390fd5b611b91848484846124d3565b50505050565b6060611ba282611ed7565b611be1576040517f08c379a0000000000000000000000000000000000000000000000000000000008152600401611bd890613f05565b60405180910390fd5b600e611bec8361252f565b600f604051602001611c0093929190613b09565b6040516020818303038152906040529050919050565b6000600860008373ffffffffffffffffffffffffffffffffffffffff1673ffffffffffffffffffffffffffffffffffffffff168152602001908152602001600020549050919050565b6000600754905090565b6000600460008473ffffffffffffffffffffffffffffffffffffffff1673ffffffffffffffffffffffffffffffffffffffff16815260200190815260200160002060008373ffffffffffffffffffffffffffffffffffffffff1673ffffffffffffffffffffffffffffffffffffffff16815260200190815260200160002060009054906101000a900460ff16905092915050565b611d05610887565b73ffffffffffffffffffffffffffffffffffffffff16611d2361163d565b73ffffffffffffffffffffffffffffffffffffffff1614611d79576040517f08c379a0000000000000000000000000000000000000000000000000000000008152600401611d7090613ec5565b60405180910390fd5b600073ffffffffffffffffffffffffffffffffffffffff168173ffffffffffffffffffffffffffffffffffffffff161415611de9576040517f08c379a0000000000000000000000000000000000000000000000000000000008152600401611de090613ca5565b60405180910390fd5b611df2816123ef565b50565b60007f80ac58cd000000000000000000000000000000000000000000000000000000007bffffffffffffffffffffffffffffffffffffffffffffffffffffffff1916827bffffffffffffffffffffffffffffffffffffffffffffffffffffffff19161480611ec057507f5b5e139f000000000000000000000000000000000000000000000000000000007bffffffffffffffffffffffffffffffffffffffffffffffffffffffff1916827bffffffffffffffffffffffffffffffffffffffffffffffffffffffff1916145b80611ed05750611ecf826126dc565b5b9050919050565b600060028054905082108015611f7e5750600073ffffffffffffffffffffffffffffffffffffffff1660028381548110611f3a577f4e487b7100000000000000000000000000000000000000000000000000000000600052603260045260246000fd5b9060005260206000200160009054906101000a900473ffffffffffffffffffffffffffffffffffffffff1673ffffffffffffffffffffffffffffffffffffffff1614155b9050919050565b816003600083815260200190815260200160002060006101000a81548173ffffffffffffffffffffffffffffffffffffffff021916908373ffffffffffffffffffffffffffffffffffffffff160217905550808273ffffffffffffffffffffffffffffffffffffffff16611ff883611092565b73ffffffffffffffffffffffffffffffffffffffff167f8c5be1e5ebec7d5bd14f71427d1e84f3dd0314c0f7b2291e5b200ac8c7c3b92560405160405180910390a45050565b80471015612081576040517f08c379a000000000000000000000000000000000000000000000000000000000815260040161207890613d85565b60405180910390fd5b60008273ffffffffffffffffffffffffffffffffffffffff16826040516120a790613b3a565b60006040518083038185875af1925050503d80600081146120e4576040519150601f19603f3d011682016040523d82523d6000602084013e6120e9565b606091505b505090508061212d576040517f08c379a000000000000000000000000000000000000000000000000000000000815260040161212490613d65565b60405180910390fd5b505050565b600061213d82611ed7565b61217c576040517f08c379a000000000000000000000000000000000000000000000000000000000815260040161217390613da5565b60405180910390fd5b600061218783611092565b90508073ffffffffffffffffffffffffffffffffffffffff168473ffffffffffffffffffffffffffffffffffffffff1614806121f657508373ffffffffffffffffffffffffffffffffffffffff166121de8461099b565b73ffffffffffffffffffffffffffffffffffffffff16145b8061220757506122068185611c69565b5b91505092915050565b8273ffffffffffffffffffffffffffffffffffffffff1661223082611092565b73ffffffffffffffffffffffffffffffffffffffff1614612286576040517f08c379a000000000000000000000000000000000000000000000000000000000815260040161227d90613ee5565b60405180910390fd5b600073ffffffffffffffffffffffffffffffffffffffff168273ffffffffffffffffffffffffffffffffffffffff1614156122f6576040517f08c379a00000000000000000000000000000000000000000000000000000000081526004016122ed90613d25565b60405180910390fd5b612301838383612746565b61230c600082611f85565b8160028281548110612347577f4e487b7100000000000000000000000000000000000000000000000000000000600052603260045260246000fd5b9060005260206000200160006101000a81548173ffffffffffffffffffffffffffffffffffffffff021916908373ffffffffffffffffffffffffffffffffffffffff160217905550808273ffffffffffffffffffffffffffffffffffffffff168473ffffffffffffffffffffffffffffffffffffffff167fddf252ad1be2c89b69c2b068fc378daa952ba7f163c4a11628f55a4df523b3ef60405160405180910390a4505050565b6000600560009054906101000a900473ffffffffffffffffffffffffffffffffffffffff16905081600560006101000a81548173ffffffffffffffffffffffffffffffffffffffff021916908373ffffffffffffffffffffffffffffffffffffffff1602179055508173ffffffffffffffffffffffffffffffffffffffff168173ffffffffffffffffffffffffffffffffffffffff167f8be0079c531659141344cd1fd0a4f28419497f9722a3daafe3b4186f6b6457e060405160405180910390a35050565b6124cf82826040518060200160405280600081525061274b565b5050565b6124de848484612210565b6124ea848484846127a6565b612529576040517f08c379a000000000000000000000000000000000000000000000000000000000815260040161252090613c85565b60405180910390fd5b50505050565b60606000821415612577576040518060400160405280600181526020017f300000000000000000000000000000000000000000000000000000000000000081525090506126d7565b600082905060005b600082146125a957808061259290614319565b915050600a826125a2919061412a565b915061257f565b60008167ffffffffffffffff8111156125eb577f4e487b7100000000000000000000000000000000000000000000000000000000600052604160045260246000fd5b6040519080825280601f01601f19166020018201604052801561261d5781602001600182028036833780820191505090505b5090505b600085146126d05760018261263691906141b5565b9150600a856126459190614362565b603061265191906140d4565b60f81b81838151811061268d577f4e487b7100000000000000000000000000000000000000000000000000000000600052603260045260246000fd5b60200101907effffffffffffffffffffffffffffffffffffffffffffffffffffffffffffff1916908160001a905350600a856126c9919061412a565b9450612621565b8093505050505b919050565b60007f01ffc9a7000000000000000000000000000000000000000000000000000000007bffffffffffffffffffffffffffffffffffffffffffffffffffffffff1916827bffffffffffffffffffffffffffffffffffffffffffffffffffffffff1916149050919050565b505050565b612755838361293d565b61276260008484846127a6565b6127a1576040517f08c379a000000000000000000000000000000000000000000000000000000000815260040161279890613c85565b60405180910390fd5b505050565b60006127c78473ffffffffffffffffffffffffffffffffffffffff16612ac5565b15612930578373ffffffffffffffffffffffffffffffffffffffff1663150b7a026127f0610887565b8786866040518563ffffffff1660e01b81526004016128129493929190613b93565b602060405180830381600087803b15801561282c57600080fd5b505af192505050801561285d57506040513d601f19601f8201168201806040525081019061285a9190612eeb565b60015b6128e0573d806000811461288d576040519150601f19603f3d011682016040523d82523d6000602084013e612892565b606091505b506000815114156128d8576040517f08c379a00000000000000000000000000000000000000000000000000000000081526004016128cf90613c85565b60405180910390fd5b805181602001fd5b63150b7a0260e01b7bffffffffffffffffffffffffffffffffffffffffffffffffffffffff1916817bffffffffffffffffffffffffffffffffffffffffffffffffffffffff191614915050612935565b600190505b949350505050565b600073ffffffffffffffffffffffffffffffffffffffff168273ffffffffffffffffffffffffffffffffffffffff1614156129ad576040517f08c379a00000000000000000000000000000000000000000000000000000000081526004016129a490613e85565b60405180910390fd5b6129b681611ed7565b156129f6576040517f08c379a00000000000000000000000000000000000000000000000000000000081526004016129ed90613cc5565b60405180910390fd5b612a0260008383612746565b6002829080600181540180825580915050600190039060005260206000200160009091909190916101000a81548173ffffffffffffffffffffffffffffffffffffffff021916908373ffffffffffffffffffffffffffffffffffffffff160217905550808273ffffffffffffffffffffffffffffffffffffffff16600073ffffffffffffffffffffffffffffffffffffffff167fddf252ad1be2c89b69c2b068fc378daa952ba7f163c4a11628f55a4df523b3ef60405160405180910390a45050565b600080823b905060008111915050919050565b828054612ae4906142e7565b90600052602060002090601f016020900481019282612b065760008555612b4d565b82601f10612b1f57805160ff1916838001178555612b4d565b82800160010185558215612b4d579182015b82811115612b4c578251825591602001919060010190612b31565b5b509050612b5a9190612b5e565b5090565b5b80821115612b77576000816000905550600101612b5f565b5090565b6000612b8e612b8984614011565b613fe0565b905082815260208101848484011115612ba657600080fd5b612bb18482856142a5565b509392505050565b6000612bcc612bc784614041565b613fe0565b905082815260208101848484011115612be457600080fd5b612bef8482856142a5565b509392505050565b600081359050612c0681614460565b92915050565b600081359050612c1b81614477565b92915050565b600081359050612c308161448e565b92915050565b600081359050612c45816144a5565b92915050565b600081519050612c5a816144a5565b92915050565b600082601f830112612c7157600080fd5b8135612c81848260208601612b7b565b91505092915050565b600082601f830112612c9b57600080fd5b8135612cab848260208601612bb9565b91505092915050565b600081359050612cc3816144bc565b92915050565b600060208284031215612cdb57600080fd5b6000612ce984828501612bf7565b91505092915050565b600060208284031215612d0457600080fd5b6000612d1284828501612c0c565b91505092915050565b60008060408385031215612d2e57600080fd5b6000612d3c85828601612bf7565b9250506020612d4d85828601612bf7565b9150509250929050565b600080600060608486031215612d6c57600080fd5b6000612d7a86828701612bf7565b9350506020612d8b86828701612bf7565b9250506040612d9c86828701612cb4565b9150509250925092565b60008060008060808587031215612dbc57600080fd5b6000612dca87828801612bf7565b9450506020612ddb87828801612bf7565b9350506040612dec87828801612cb4565b925050606085013567ffffffffffffffff811115612e0957600080fd5b612e1587828801612c60565b91505092959194509250565b60008060408385031215612e3457600080fd5b6000612e4285828601612bf7565b9250506020612e5385828601612c21565b9150509250929050565b60008060408385031215612e7057600080fd5b6000612e7e85828601612bf7565b9250506020612e8f85828601612cb4565b9150509250929050565b600060208284031215612eab57600080fd5b6000612eb984828501612c21565b91505092915050565b600060208284031215612ed457600080fd5b6000612ee284828501612c36565b91505092915050565b600060208284031215612efd57600080fd5b6000612f0b84828501612c4b565b91505092915050565b60008060408385031215612f2757600080fd5b600083013567ffffffffffffffff811115612f4157600080fd5b612f4d85828601612c8a565b925050602083013567ffffffffffffffff811115612f6a57600080fd5b612f7685828601612c8a565b9150509250929050565b600060208284031215612f9257600080fd5b6000612fa084828501612cb4565b91505092915050565b60008060408385031215612fbc57600080fd5b6000612fca85828601612cb4565b9250506020612fdb85828601612bf7565b9150509250929050565b612fee8161426f565b82525050565b612ffd816141e9565b82525050565b61300c8161420d565b82525050565b600061301d82614086565b613027818561409c565b93506130378185602086016142b4565b6130408161444f565b840191505092915050565b600061305682614091565b61306081856140b8565b93506130708185602086016142b4565b6130798161444f565b840191505092915050565b600061308f82614091565b61309981856140c9565b93506130a98185602086016142b4565b80840191505092915050565b600081546130c2816142e7565b6130cc81866140c9565b945060018216600081146130e757600181146130f85761312b565b60ff1983168652818601935061312b565b61310185614071565b60005b8381101561312357815481890152600182019150602081019050613104565b838801955050505b50505092915050565b6000613141600e836140b8565b91507f4578636565647320737570706c790000000000000000000000000000000000006000830152602082019050919050565b6000613181602b836140b8565b91507f455243373231456e756d657261626c653a206f776e657220696e646578206f7560008301527f74206f6620626f756e64730000000000000000000000000000000000000000006020830152604082019050919050565b60006131e76032836140b8565b91507f4552433732313a207472616e7366657220746f206e6f6e20455243373231526560008301527f63656976657220696d706c656d656e74657200000000000000000000000000006020830152604082019050919050565b600061324d6026836140b8565b91507f4f776e61626c653a206e6577206f776e657220697320746865207a65726f206160008301527f64647265737300000000000000000000000000000000000000000000000000006020830152604082019050919050565b60006132b3601c836140b8565b91507f4552433732313a20746f6b656e20616c7265616479206d696e746564000000006000830152602082019050919050565b60006132f36026836140b8565b91507f5061796d656e7453706c69747465723a206163636f756e7420686173206e6f2060008301527f73686172657300000000000000000000000000000000000000000000000000006020830152604082019050919050565b6000613359602e836140b8565b91507f53706563696669656420737570706c79206973206c6f776572207468616e206360008301527f757272656e742062616c616e63650000000000000000000000000000000000006020830152604082019050919050565b60006133bf6024836140b8565b91507f4552433732313a207472616e7366657220746f20746865207a65726f2061646460008301527f72657373000000000000000000000000000000000000000000000000000000006020830152604082019050919050565b60006134256019836140b8565b91507f4552433732313a20617070726f766520746f2063616c6c6572000000000000006000830152602082019050919050565b6000613465603a836140b8565b91507f416464726573733a20756e61626c6520746f2073656e642076616c75652c207260008301527f6563697069656e74206d617920686176652072657665727465640000000000006020830152604082019050919050565b60006134cb601d836140b8565b91507f416464726573733a20696e73756666696369656e742062616c616e63650000006000830152602082019050919050565b600061350b602c836140b8565b91507f4552433732313a206f70657261746f7220717565727920666f72206e6f6e657860008301527f697374656e7420746f6b656e00000000000000000000000000000000000000006020830152604082019050919050565b6000613571602b836140b8565b91507f5061796d656e7453706c69747465723a206163636f756e74206973206e6f742060008301527f647565207061796d656e740000000000000000000000000000000000000000006020830152604082019050919050565b60006135d76038836140b8565b91507f4552433732313a20617070726f76652063616c6c6572206973206e6f74206f7760008301527f6e6572206e6f7220617070726f76656420666f7220616c6c00000000000000006020830152604082019050919050565b600061363d602a836140b8565b91507f4552433732313a2062616c616e636520717565727920666f7220746865207a6560008301527f726f2061646472657373000000000000000000000000000000000000000000006020830152604082019050919050565b60006136a36029836140b8565b91507f4552433732313a206f776e657220717565727920666f72206e6f6e657869737460008301527f656e7420746f6b656e00000000000000000000000000000000000000000000006020830152604082019050919050565b60006137096013836140b8565b91507f4d6178207065722077616c6c65742069732036000000000000000000000000006000830152602082019050919050565b6000613749600d836140b8565b91507f4f7264657220746f6f20626967000000000000000000000000000000000000006000830152602082019050919050565b60006137896020836140b8565b91507f4552433732313a206d696e7420746f20746865207a65726f20616464726573736000830152602082019050919050565b60006137c9602c836140b8565b91507f4552433732313a20617070726f76656420717565727920666f72206e6f6e657860008301527f697374656e7420746f6b656e00000000000000000000000000000000000000006020830152604082019050919050565b600061382f6020836140b8565b91507f4f776e61626c653a2063616c6c6572206973206e6f7420746865206f776e65726000830152602082019050919050565b600061386f6029836140b8565b91507f4552433732313a207472616e73666572206f6620746f6b656e2074686174206960008301527f73206e6f74206f776e00000000000000000000000000000000000000000000006020830152604082019050919050565b60006138d5602f836140b8565b91507f4552433732314d657461646174613a2055524920717565727920666f72206e6f60008301527f6e6578697374656e7420746f6b656e00000000000000000000000000000000006020830152604082019050919050565b600061393b6021836140b8565b91507f4552433732313a20617070726f76616c20746f2063757272656e74206f776e6560008301527f72000000000000000000000000000000000000000000000000000000000000006020830152604082019050919050565b60006139a16019836140b8565b91507f45746865722073656e74206973206e6f7420636f7272656374000000000000006000830152602082019050919050565b60006139e16000836140ad565b9150600082019050919050565b60006139fb6031836140b8565b91507f4552433732313a207472616e736665722063616c6c6572206973206e6f74206f60008301527f776e6572206e6f7220617070726f7665640000000000000000000000000000006020830152604082019050919050565b6000613a61602c836140b8565b91507f455243373231456e756d657261626c653a20676c6f62616c20696e646578206f60008301527f7574206f6620626f756e647300000000000000000000000000000000000000006020830152604082019050919050565b6000613ac7600e836140b8565b91507f53616c65206973206c6f636b65640000000000000000000000000000000000006000830152602082019050919050565b613b0381614265565b82525050565b6000613b1582866130b5565b9150613b218285613084565b9150613b2d82846130b5565b9150819050949350505050565b6000613b45826139d4565b9150819050919050565b6000602082019050613b646000830184612ff4565b92915050565b6000604082019050613b7f6000830185612fe5565b613b8c6020830184613afa565b9392505050565b6000608082019050613ba86000830187612ff4565b613bb56020830186612ff4565b613bc26040830185613afa565b8181036060830152613bd48184613012565b905095945050505050565b6000604082019050613bf46000830185612ff4565b613c016020830184613afa565b9392505050565b6000602082019050613c1d6000830184613003565b92915050565b60006020820190508181036000830152613c3d818461304b565b905092915050565b60006020820190508181036000830152613c5e81613134565b9050919050565b60006020820190508181036000830152613c7e81613174565b9050919050565b60006020820190508181036000830152613c9e816131da565b9050919050565b60006020820190508181036000830152613cbe81613240565b9050919050565b60006020820190508181036000830152613cde816132a6565b9050919050565b60006020820190508181036000830152613cfe816132e6565b9050919050565b60006020820190508181036000830152613d1e8161334c565b9050919050565b60006020820190508181036000830152613d3e816133b2565b9050919050565b60006020820190508181036000830152613d5e81613418565b9050919050565b60006020820190508181036000830152613d7e81613458565b9050919050565b60006020820190508181036000830152613d9e816134be565b9050919050565b60006020820190508181036000830152613dbe816134fe565b9050919050565b60006020820190508181036000830152613dde81613564565b9050919050565b60006020820190508181036000830152613dfe816135ca565b9050919050565b60006020820190508181036000830152613e1e81613630565b9050919050565b60006020820190508181036000830152613e3e81613696565b9050919050565b60006020820190508181036000830152613e5e816136fc565b9050919050565b60006020820190508181036000830152613e7e8161373c565b9050919050565b60006020820190508181036000830152613e9e8161377c565b9050919050565b60006020820190508181036000830152613ebe816137bc565b9050919050565b60006020820190508181036000830152613ede81613822565b9050919050565b60006020820190508181036000830152613efe81613862565b9050919050565b60006020820190508181036000830152613f1e816138c8565b9050919050565b60006020820190508181036000830152613f3e8161392e565b9050919050565b60006020820190508181036000830152613f5e81613994565b9050919050565b60006020820190508181036000830152613f7e816139ee565b9050919050565b60006020820190508181036000830152613f9e81613a54565b9050919050565b60006020820190508181036000830152613fbe81613aba565b9050919050565b6000602082019050613fda6000830184613afa565b92915050565b6000604051905081810181811067ffffffffffffffff8211171561400757614006614420565b5b8060405250919050565b600067ffffffffffffffff82111561402c5761402b614420565b5b601f19601f8301169050602081019050919050565b600067ffffffffffffffff82111561405c5761405b614420565b5b601f19601f8301169050602081019050919050565b60008190508160005260206000209050919050565b600081519050919050565b600081519050919050565b600082825260208201905092915050565b600081905092915050565b600082825260208201905092915050565b600081905092915050565b60006140df82614265565b91506140ea83614265565b9250827fffffffffffffffffffffffffffffffffffffffffffffffffffffffffffffffff0382111561411f5761411e614393565b5b828201905092915050565b600061413582614265565b915061414083614265565b9250826141505761414f6143c2565b5b828204905092915050565b600061416682614265565b915061417183614265565b9250817fffffffffffffffffffffffffffffffffffffffffffffffffffffffffffffffff04831182151516156141aa576141a9614393565b5b828202905092915050565b60006141c082614265565b91506141cb83614265565b9250828210156141de576141dd614393565b5b828203905092915050565b60006141f482614245565b9050919050565b600061420682614245565b9050919050565b60008115159050919050565b60007fffffffff0000000000000000000000000000000000000000000000000000000082169050919050565b600073ffffffffffffffffffffffffffffffffffffffff82169050919050565b6000819050919050565b600061427a82614281565b9050919050565b600061428c82614293565b9050919050565b600061429e82614245565b9050919050565b82818337600083830152505050565b60005b838110156142d25780820151818401526020810190506142b7565b838111156142e1576000848401525b50505050565b600060028204905060018216806142ff57607f821691505b60208210811415614313576143126143f1565b5b50919050565b600061432482614265565b91507fffffffffffffffffffffffffffffffffffffffffffffffffffffffffffffffff82141561435757614356614393565b5b600182019050919050565b600061436d82614265565b915061437883614265565b925082614388576143876143c2565b5b828206905092915050565b7f4e487b7100000000000000000000000000000000000000000000000000000000600052601160045260246000fd5b7f4e487b7100000000000000000000000000000000000000000000000000000000600052601260045260246000fd5b7f4e487b7100000000000000000000000000000000000000000000000000000000600052602260045260246000fd5b7f4e487b7100000000000000000000000000000000000000000000000000000000600052604160045260246000fd5b6000601f19601f8301169050919050565b614469816141e9565b811461447457600080fd5b50565b614480816141fb565b811461448b57600080fd5b50565b6144978161420d565b81146144a257600080fd5b50565b6144ae81614219565b81146144b957600080fd5b50565b6144c581614265565b81146144d057600080fd5b5056fea26469706673582212206f2da1383f9078bd21b9d2ac430bbb81cf969378d4d436117f1058ffeea0087764736f6c63430008000033",
  "linkReferences": {},
  "deployedLinkReferences": {}
}